S00C000056656C6F2E7372656382
S113000032C14CC14BC14AC149C148C147C146C1B3
S113001045C144C152C142C141C140C13FC10000B8
S1130020000000000000002F00000000070007008F
S113003000147F147F1400242A7F2A1200626408AB
S11300401323003649552250000005030000000028
S11300501C224100000041221C000014083E081428
S11300600008083E0808000000A060000008080816
S11300700808000060600000002010080402003E30
S11300805149453E0000427F4000004261514946CB
S1130090002141454B31001814127F1000274545BB
S11300A04539003C4A4949300001710905030036CD
S11300B04949493600064949291E000036360000E0
S11300C000005636000000081422410000141414E5
S11300D014140000412214080002015109060032E0
S11300E04959513E007C1211127C007F494949361E
S11300F0003E41414122007F4141221C007F494989
S11301004941007F09090901003E4149497A007FBC
S11301100808087F0000417F4100002040413F0162
S1130120007F08142241007F40404040007F020CC1
S1130130027F007F0408107F003E4141413E007F62
S113014009090906003E4151215E007F091929462B
S11301500046494949310001017F0101003F404007
S1130160403F001F2040201F003F4038403F0063B5
S113017014081463000708700807006151494543D7
S113018000007F41410000552A552A550000414195
S11301907F0000040201020400404040404000008F
S11301A001020400002054545478007F4844443829
S11301B000384444442000384444487F00385454B0
S11301C0541800087E0901020018A4A4A47C007F2E
S11301D0080404780000447D4000004080847D00D1
S11301E0007F102844000000417F4000007C041878
S11301F00478007C0804047800384444443800FC43
S1130200242424180018242418FC007C080404085E
S113021000485454542000043F444020003C4040D3
S1130220207C001C2040201C003C4030403C00440A
S113023028102844001CA0A0A07C004464544C4412
S1130240141414141414AED5F0A83FD300408D1424
S11302502000A1C8DA12813FD922DB20A4A62EAF48
S113026022003F21007F11241FBECFE5D2E0DEBF74
S1130270CDBF10E0A0E6B0E0EEE8F3E102C00590E7
S11302800D92AE39B107D9F720E0AEE9B0E001C074
S11302901D92A73FB207E1F7C2D277C8B1CEF89456
S11302A08AB582608ABD87E889BD83B7836083BFCE
S11302B089B7806189BF789408951F920F920FB611
S11302C00F9211248F939F93AF93BF938091A800B3
S11302D09091A900A091AA00B091AB000196A11D34
S11302E0B11D8093A8009093A900A093AA00B09395
S11302F0AB00BF91AF919F918F910F900FBE0F9064
S11303001F9018952FB7F8946091A8007091A900D8
S11303108091AA009091AB002FBF08959FEF980F92
S11303209E3F20F4682F80E090E021D8089580E07B
S113033090E015D88F3F19F480E4F0DF80E4682F53
S113034070E080E090E087D623EC35EF48E450E499
S113035036D720E030E543EC57E4E2D56093B300B0
S11303607093B4008093B5009093B6000895809381
S1130370E100F6D3089520E040E060E080E0CED3D1
S11303808091F4008F5F843019F08093F400089515
S11303901092F40008952F923F924F925F926F92C1
S11303A07F928F929F92AF92BF92CF92DF92EF9201
S11303B0FF920F931F93CF93DF938091F4008130CA
S11303C089F138F0823009F456C0833009F49BC0B7
S11303D0ADC060E080E08DD38EE890E0F8D360910A
S11303E0EB007091EC008091ED009091EE0041E003
S11303F050E0E6D482E790E0EAD36AE080E079D383
S11304008CE790E0E4D36091B7007091B8008091DC
S1130410B9009091BA0042E050E0D2D480E890E074
S1130420D6D384C060E080E064D388E890E0CFD382
S11304306091AD007091AE008091AF009091B000DA
S113044041E050E0BDD482E790E0C1D36AE080E0AF
S113045050D38DE890E0BBD360919F007091A000D1
S11304608091A1009091A20041E050E0A9D482E7DC
S113047090E0ADD35BC046DF6B017C0120E83EEE2B
S113048046E350E01AD749015A01C701B60128EEE4
S113049033E040E050E011D7CA01B90120E13EE069
S11304A040E050E00AD72CE330E040E050E005D7CC
S11304B029013A016B017C018901EB0160E080E0D4
S11304C018D382E990E083D36AE080E012D38AE013
S11304D08816910414F480E354D3C401C7D38BE980
S11304E090E075D30A30110514F480E34AD3C201B5
S11304F0BDD38BE990E06BD32A9714F480E341D306
S1130500C601B4D313C060E080E0F3D288E990E080
S11305105ED36AE080E0EDD28091F300811103C0E4
S11305208EE690E002C08AE690E051D3DF91CF914D
S11305301F910F91FF90EF90DF90CF90BF90AF90FD
S11305409F908F907F906F905F904F903F902F90EF
S113055008958093F300C4980895CF92DF92EF92A8
S1130560FF926A017B019091A30091115FC08111F8
S113057060C081E08093A3004093E2005093E300C5
S11305806093E4007093E50026C01092A30080916C
S11305909E00811119C08091E1008823A9F0809107
S11305A0E2009091E300A091E400B091E500A7017E
S11305B09601281B390B4A0B5B0B2233310541058D
S11305C0510510F0D8DEE7DE10929E008091A30062
S11305D0811105C02EC080919E0081112AC0809196
S11305E0E2009091E300A091E400B091E500C81A04
S11305F0D90AEA0AFB0A34EFC31631E0D306E10450
S1130600F104B8F081E080939E008091F40083307F
S113061039F49091F30081E089279BDFBCDE09C0A7
S11306209091E10081E08927A2DE03C08111ADCF62
S1130630D2CFFF90EF90DF90CF9008958F929F924A
S1130640AF92BF92CF92DF92EF92FF920F931F93DC
S1130650CF93DF936B017C0120E030E0A9015CD4EF
S1130660882309F457C0E091BF0081E08E0F809386
S1130670BF00F0E0EE0FFF1FEE0FFF1FEF53FF4F21
S1130680C082D182E282F382883009F043C01092A2
S1130690BF00C1ECD0E001EE10E060E070E0CB01FF
S11306A02991399149915991D3D3C017D107C1F7F1
S11306B020E030E040E05EE382D54B015C01C09075
S11306C09F00D090A000E090A100F090A20020E054
S11306D030E0A901C701B6011FD4811109C080927D
S11306E09F009092A000A092A100B092A20012C01C
S11306F0A7019601C501B401ABD320E030E040E08E
S11307005FE35DD560939F007093A0008093A10088
S11307109093A200DF91CF911F910F91FF90EF90E2
S1130720DF90CF90BF90AF909F908F900895CF921D
S1130730DF92EF92FF922091C000253009F06AC049
S1130740C090A400D090A500E090A600F090A7006F
S1130750DC01CB018C199D09AE09BF09B695A7959B
S113076097958795B695A795979587959C01AD0123
S11307704427552760E67AEE80E090E0C0D528351E
S113078082E03807E8F53093B2002093B100B90154
S113079062957295707F7627607F7627621B730B54
S11307A0660F771F660F771F80E090E052D4209188
S11307B0B3003091B4004091B5005091B600FFD41D
S11307C06B017C016093EB007093EC008093ED006F
S11307D09093EE002091AD003091AE004091AF00B7
S11307E05091B000E8D4882344F0C092AD00D09278
S11307F0AE00E092AF00F092B000C701B6011EDF78
S11308001092C0001092A4001092A5001092A600AD
S11308101092A700FF90EF90DF90CF90089580E8AA
S113082086BD16BC17BABC9AC39A39DD80DDB3DD28
S11308302FEF30E742E0215030404040E1F700C064
S1130840000041D18EE190E097D120E040E060E0EB
S113085080E064D1A0DD81E08093E100D1E0C0E1DB
S113086051DD6B017C01B299F2C08091EA008111E3
S11308703FC0D093EA003CC01092EA00C092EF005F
S1130880D092F000E092F100F092F2008091A40086
S11308909091A500A091A600B091A700892B8A2B66
S11308A08B2B41F4C092A400D092A500E092A60044
S11308B0F092A7008091C0008F5F8093C0002091C8
S11308C0B3003091B4004091B5005091B6006091EE
S11308D0B7007091B8008091B9009091BA00B8D275
S11308E06093B7007093B8008093B9009093BA00F6
S11308F0C701B6011CDF86B3B701A60188702DDEDF
S11309008091F3008823F1F08091BB009091BC00AA
S1130910A091BD00B091BE00A7019601281B390B20
S11309204A0B5B0B2A3F31054105510558F088B34A
S11309308C2788BBC092BB00D092BC00E092BD0063
S1130940F092BE0020E030E0A9016091EB007091CC
S1130950EC008091ED009091EE00DED2882361F1ED
S11309608091EF009091F000A091F100B091F2001D
S1130970A7019601281B390B4A0B5B0BDA01C9014D
S1130980803A9F40A105B105B8F01092EB00109297
S1130990EC001092ED001092EE001092B200109252
S11309A0B1001092C0001092A4001092A500109201
S11309B0A6001092A700EFDC8091F4008230B1F41D
S11309C08091E6009091E700A091E800B091E900E1
S11309D0A7019601281B390B4A0B5B0BDA01C901ED
S11309E0883E9340A105B10540F53ACF811138CF37
S11309F020E030E0A9016091EB007091EC0080915F
S1130A00ED009091EE00D7D318160CF029CF809109
S1130A10E6009091E700A091E800B091E900A701F9
S1130A209601281B390B4A0B5B0BDA01C901803A8A
S1130A309F40A105B10508F413CFADDCC092E600D8
S1130A40D092E700E092E800F092E90009CF8091AB
S1130A50EA00811111CF4CCFB89AB99AC19AC09AC1
S1130A60C098C1980895C198C098C19AC09AB8987E
S1130A70089520E030E090E0AC01022E02C0440F63
S1130A80551F0A94E2F747FF02C0C09A01C0C098FC
S1130A90C19AC1982F5F3F4F2830310569F7C09A3A
S1130AA0C19AC1980895D8DF88E7E3DF80E0E1DFE9
S1130AB00895D2DF88E7DDDF80E4DBDF0895D9DF46
S1130AC00895D1DF08950F931F93CF93DF93EBDF46
S1130AD0C6E4D2E006E612E0FE018491CADF219664
S1130AE0C017D107C9F7BFDFDF91CF911F910F91D5
S1130AF00895CF93DF93C82FD62FD5DF8D2F87701E
S1130B00806BB7DF8C2F8F70B4DF8C2F82958F7042
S1130B108061AFDFA8DFDF91CF910895EF92FF925C
S1130B200F931F93CF93DF93E82EF62E042F122FEB
S1130B3060E080E0DEDFBDDFC0E0D1E08E2D99DF34
S1130B408F2D97DF802F95DF812F93DF2197B1F7CA
S1130B508ADFDF91CF911F910F91FF90EF9008955D
S1130B60CF93C82FA0DFC11102C08EEA01C08FEA63
S1130B7080DF79DFCF9108959093F6008093F5009C
S1130B8008950F931F93CF93DF9390E08C01000F90
S1130B90111F000F111F880F991F080F191FE8015B
S1130BA0C05CD10986DF0A5B1109E091F500F09180
S1130BB0F600EC0FFD1F849182DF2196C017D10748
S1130BC0A1F77FDFDF91CF911F910F910895CF930C
S1130BD0DF93EC018881882329F02196D2DF899163
S1130BE08111FCCFDF91CF910895CF92DF92EF92E4
S1130BF0FF920F931F93CF93DF937B01EB01FB01D4
S1130C0020E030E00F2EFAE0CF2ED12CF02D01C0E1
S1130C10980189010F5F1F4FB6013CD3805D81931A
S1130C20862F972F181619069CF3F701E00FF11F72
S1130C301082121613068CF4A901F701E00FF11FBC
S1130C4080E090E0288132913993208301969A01C3
S1130C50281B390B82179307ACF3DF91CF911F91B7
S1130C600F91FF90EF90DF90CF9008951F93CF9353
S1130C70DF9300D000D01F92CDB7DEB7883E23E0CB
S1130C80920798F4BE016F5F7F4FAFDF898188239D
S1130C9061F010E076DF1F5FE1E0F0E0EC0FFD1F94
S1130CA0E10FF11D80818111F5CF0F900F900F900E
S1130CB00F900F90DF91CF911F9108954F925F9203
S1130CC06F927F928F929F92AF92BF92CF92DF9258
S1130CD0EF92FF920F931F93CF93DF93CDB7DEB7BD
S1130CE02A970FB6F894DEBF0FBECDBF4B015C014F
S1130CF0642E752E89017CD16B017C01B801C6017B
S1130D0074DFF8018081882341F0C80101968C01C9
S1130D100196F80120812111FACF8EE2F801819326
S1130D208F018AE0E0E6F0E0DE01119601900D9279
S1130D308A95E1F7862D972D8530910514F084E08E
S1130D4090E0880F991FFE01E80FF91F61817281FD
S1130D50072E000C880B990B7ED12B013C01B601A8
S1130D60DD0C880B990B77D19B01AC01C501B40153
S1130D706ED09B01AC01C301B20121D239D19B01D8
S1130D80772324F422273327261B370BB801C90104
S1130D902CDF2A960FB6F894DEBF0FBECDBFDF91CD
S1130DA0CF911F910F91FF90EF90DF90CF90BF9064
S1130DB0AF909F908F907F906F905F904F90089529
S1130DC0CF92DF92EF92FF920F931F93CF93DF9313
S1130DD0CDB7DEB72A970FB6F894DEBF0FBECDBFEE
S1130DE06B017C018A0120E030E0A90195D08823C1
S1130DF0FCF020E030E04AE754E4C701B601DBD15F
S1130E008823B4F49E012F5F3F4FA801C701B601A8
S1130E1055DF8981882361F010E0B3DE1F5FE1E0D4
S1130E20F0E0EC0FFD1FE10FF11D80818111F5CF82
S1130E302A960FB6F894DEBF0FBECDBFDF91CF91D7
S1130E401F910F91FF90EF90DF90CF90089550582D
S1130E50BB27AA270ED075C166D130F06BD120F024
S1130E6031F49F3F11F41EF45BC10EF4E095E7FBEF
S1130E7051C1E92F77D180F3BA176207730784074A
S1130E80950718F071F49EF58FC10EF4E0950B2EC2
S1130E90BA2FA02D0B01B90190010C01CA01A001C8
S1130EA01124FF27591B99F0593F50F4503E68F123
S1130EB01A16F040A22F232F342F4427585FF3CF64
S1130EC0469537952795A795F0405395C9F77EF435
S1130ED01F16BA0B620B730B840BBAF09150A1F07E
S1130EE0FF0FBB1F661F771F881FC2F70EC0BA0F04
S1130EF0621F731F841F48F4879577956795B7958C
S1130F00F7959E3F08F0B3CF9395880F08F0992783
S1130F10EE0F979587950895D9D008F481E0089548
S1130F200CD00FC107D140F0FED030F021F45F3F68
S1130F3019F0F0C0511139C1F3C014D198F39923B9
S1130F40C9F35523B1F3951B550BBB27AA27621789
S1130F507307840738F09F5F5F4F220F331F441FCE
S1130F60AA1FA9F333D00E2E3AF0E0E830D0915006
S1130F705040E695001CCAF729D0FE2F27D0660FF3
S1130F80771F881FBB1F261737074807AB07B0E832
S1130F9009F0BB0B802DBF01FF2793585F4F2AF048
S1130FA09E3F510568F0B6C000C15F3FECF3983E28
S1130FB0DCF3869577956795B795F7959F5FC9F7A5
S1130FC0880F911D9695879597F90895E1E0660F2E
S1130FD0771F881FBB1F621773078407BA0720F0A7
S1130FE0621B730B840BBA0BEE1F88F7E095089510
S1130FF004D06894B111D9C00895BCD088F09F572B
S113100090F0B92F9927B751A0F0D1F0660F771F50
S1131010881F991F1AF0BA95C9F712C0B13081F030
S1131020C3D0B1E00895C0C0672F782F8827B85F78
S113103039F0B93FCCF3869577956795B395D9F791
S11310403EF490958095709561957F4F8F4F9F4F9B
S11310500895E89409C097FB3EF4909580957095A7
S113106061957F4F8F4F9F4F9923A9F0F92F96E9F0
S1131070BB279395F695879577956795B795F11165
S1131080F8CFFAF4BB0F11F460FF1BC06F5F7F4F02
S11310908F4F9F4F16C0882311F096E911C0772314
S11310A021F09EE8872F762F05C0662371F096E81D
S11310B0862F70E060E02AF09A95660F771F881FEC
S11310C0DAF7880F9695879597F90895990F000890
S11310D0550FAA0BE0E8FEEF16161706E807F90706
S11310E0C0F012161306E407F50798F0621B730BA1
S11310F0840B950B39F40A2661F0232B242B252B22
S113110021F408950A2609F4A140A6958FEF811DC4
S1131110811D089597F99F6780E870E060E0089565
S11311209FEF80EC089500240A94161617061806FB
S11311300906089500240A941216130614060506D7
S11311400895092E0394000C11F4882352F0BB0F68
S113115040F4BF2B11F460FF04C06F5F7F4F8F4FCB
S11311609F4F089557FD9058440F551F59F05F3F06
S113117071F04795880F97FB991F61F09F3F79F0B5
S113118087950895121613061406551FF2CF469537
S1131190F1DF08C0161617061806991FF1CF8695B9
S11311A07105610508940895E894BB27662777279D
S11311B0CB0197F908958ADF08F48FEF08950AD0D8
S11311C0C0CFB1DF28F0B6DF18F0952309F0A2CF25
S11311D0A7CFEBCFC7DFA8F39923D9F35523C9F3DE
S11311E0950F50E0551FAA27EE27FF27BB270024A1
S11311F00894679520F4E20FF31FB41F0A1E220F10
S1131200331F441FAA1F6695A9F7779530F4F30F8F
S1131210B41F0A1E121E08F46395330F441FAA1F3D
S1131220221F769599F7879520F4B40F0A1E121E93
S1131230631F440FAA1F221F331F8695A9F7862F09
S1131240712D602D11249F5750408AF0E1F08823BE
S11312504AF0EE0FFF1FBB1F661F771F881F9150B8
S11312605040A9F79E3F510570F054CF9ECF5F3F89
S1131270ECF3983EDCF3869577956795B795F795EB
S1131280E7959F5FC1F7FE2B880F911D9695879573
S113129097F9089597FB072E16F4009406D077FD6E
S11312A008D049D007FC05D03EF4909581959F4F16
S11312B00895709561957F4F0895A1E21A2EAA1B97
S11312C0BB1BFD010DC0AA1FBB1FEE1FFF1FA217F2
S11312D0B307E407F50720F0A21BB30BE40BF50BEF
S11312E0661F771F881F991F1A9469F76095709578
S11312F0809590959B01AC01BD01CF010895052E09
S113130097FB16F400940FD057FD05D0D6DF07FCE9
S113131002D046F408C050954095309521953F4F32
S11313204F4F5F4F089590958095709561957F4FCD
S11313308F4F9F4F0895AA1BBB1B51E107C0AA1FE3
S1131340BB1FA617B70710F0A61BB70B881F991F62
S11313505A95A9F780959095BC01CD010895E1991E
S1131360FECF9FBB8EBBE09A99278DB30895262F9D
S1131370E199FECF1CBA9FBB8EBB2DBB0FB6F89470
S1111380E29AE19A0FBE01960895F894FFCF09
S113138E00000A006400E80310276F6E20006F66E9
S113139E6600206B6D2F682020202000643A200008
S11313AE206B6D20202020006D733A200061733A6B
S11113BE200074696D653A006C65643A0000A5
S9030000FC
