:1000000032C14CC156C1A2C249C148C147C146C153
:1000100045C144C16BC142C141C140C13FC10000A3
:10002000000000000000002F000000000700070093
:1000300000147F147F1400242A7F2A1200626408AF
:10004000132300364955225000000503000000002C
:100050001C224100000041221C000014083E08142C
:100060000008083E0808000000A06000000808081A
:100070000808000060600000002010080402003E34
:100080005149453E0000427F4000004261514946CF
:10009000002141454B31001814127F1000274545BF
:1000A0004539003C4A4949300001710905030036D1
:1000B0004949493600064949291E000036360000E4
:1000C00000005636000000081422410000141414E9
:1000D00014140000412214080002015109060032E4
:1000E0004959513E007C1211127C007F4949493622
:1000F000003E41414122007F4141221C007F49498D
:100100004941007F09090901003E4149497A007FC0
:100110000808087F0000417F4100002040413F0166
:10012000007F08142241007F40404040007F020CC5
:10013000027F007F0408107F003E4141413E007F66
:1001400009090906003E4151215E007F091929462F
:100150000046494949310001017F0101003F40400B
:10016000403F001F2040201F003F4038403F0063B9
:1001700014081463000708700807006151494543DB
:1001800000007F41410000552A552A550000414199
:100190007F00000402010204004040404040000093
:1001A00001020400002054545478007F484444382D
:1001B00000384444442000384444487F00385454B4
:1001C000541800087E0901020018A4A4A47C007F32
:1001D000080404780000447D4000004080847D00D5
:1001E000007F102844000000417F4000007C04187C
:1001F0000478007C0804047800384444443800FC47
:10020000242424180018242418FC007C0804040862
:1002100000485454542000043F444020003C4040D7
:10022000207C001C2040201C003C4030403C00440E
:1002300028102844001CA0A0A07C004464544C4416
:10024000141414141414AED5F0A83FD300408D1428
:100250002000A1C8DA12813FD922DB20A4A62EAF4C
:1002600022003F21007F11241FBECFE5D2E0DEBF78
:10027000CDBF10E0A0E6B0E0E6E8F2E102C00590F4
:100280000D92A23FB107D9F721E0A2EFB0E001C083
:100290001D92A334B207E1F7D7D2F3C7B1CEF894D9
:1002A00085B7836085BF8BB780628BBFA99A78942E
:1002B00008951F920F920FB60F9211248F9381E031
:1002C0008093FC008F910F900FBE0F901F90189598
:1002D000F8948AB582608ABD8DE789BD83B7836053
:1002E00083BF89B7806189BF789408951F920F9268
:1002F0000FB60F9211248F939F93AF93BF9380916A
:10030000FD009091FE00A091FF00B09100010196C8
:10031000A11DB11D8093FD009093FE00A093FF00EE
:10032000B0930001BF91AF919F918F910F900FBE3D
:100330000F901F9018952FB7F8946091FD00709161
:10034000FE008091FF00909100012FBF08959FEF64
:10035000980F9E3F20F4682F82E090E084D70895A4
:1003600082E090E078D78F3F19F481E4F0DF81E4F8
:10037000682F70E080E090E0F5D523EC35EF48E49D
:1003800050E4A4D620E030E543EC57E450D5609328
:100390000701709308018093090190930A01089561
:1003A00080932601C3D30895809136018F5F8530F5
:1003B00019F080933601089510923601089520E0D7
:1003C00040E060E080E090D380913601823009F413
:1003D00053C028F4882351F0813059F108958330B7
:1003E00009F456C0843009F467C0089560E080E0E5
:1003F00066D360912D0170912E0180912F01909113
:10040000300141E050E0A5D48BE890E0C6D360E134
:1004100080E055D360910B0170910C0180910D012A
:1004200090910E0142E050E094D481E990E0B5D380
:10043000089560E080E043D3609101017091020172
:10044000809103019091040141E050E082D48BE857
:1004500090E0A3D360E180E032D36091F30070912B
:10046000F4008091F5009091F60041E050E071D4E5
:100470008BE890E092D3089560E080E020D38091F3
:10048000050190910601D8D385E990E086D30895BF
:1004900060E080E014D38AE990E07FD360E180E0FF
:1004A0000ED380911001811103C087E890E002C053
:1004B00084E890E072D3089560E080E000D384EA9D
:1004C00090E06BD360E180E0FAD280913501811138
:1004D00003C087E890E002C084E890E05ED308950E
:1004E0006091100181E068276093100181E090E045
:1004F000BAD6089580E054DFC49885B7877E8061BE
:1005000085BFF89485B7806285BF85B7846885BF4D
:100510008B7F85BF7894889585B78F7D85BF7894CC
:1005200008958093350110BE1DBC19BE882369F063
:10053000F89480B7806880BF84EF8DBD80B78E60EF
:1005400080BF89B7806489BF789408951F920F9205
:100550000FB60F9211248F939F9398B380E1892750
:1005600088BB9F918F910F900FBE0F901F90189591
:10057000CF92DF92EF92FF926A017B019091F70098
:10058000911164C0811165C081E08093F7004093B0
:1005900028015093290160932A0170932B0113C005
:1005A0001092F7008091F200811106C0809126011F
:1005B000882311F0F9DE03DF1092F2008091F7003A
:1005C000811105C046C08091F200811142C0809126
:1005D000280190912901A0912A01B0912B01A70136
:1005E0009601281B390B4A0B5B0BDA01C901843FCA
:1005F0009140A105B10568F181E08093F2008091FE
:100600003601833019F08430A1F01AC090911001A6
:1006100081E0892765DFD3DE809110018823C9F04E
:10062000C0923101D0923201E0923301F092340154
:1006300010C09091350181E0892773DFC0DE09C0C9
:100640009091260181E08927ABDE03C08111A8CFFC
:10065000BACFFF90EF90DF90CF9008958F929F9246
:10066000AF92BF92CF92DF92EF92FF920F931F93C0
:10067000CF93DF936B017C0120E030E0A901D3D35D
:10068000882309F457C0E0910F0181E08E0F809319
:100690000F01F0E0EE0FFF1FEE0FFF1FEE5EFE4FAB
:1006A000C082D182E282F382853009F043C0109289
:1006B0000F01C2E1D1E006E211E060E070E0CB01A1
:1006C00029913991499159914AD3C017D107C1F75E
:1006D00020E030E040EA50E4AAD34B015C01C09036
:1006E000F300D090F400E090F500F090F60020E0E8
:1006F00030E0A901C701B60196D3811109C08092EB
:10070000F3009092F400A092F500B092F60012C0AF
:10071000A7019601C501B40122D320E030E040E0FA
:100720005FE3D4D46093F3007093F4008093F500FA
:100730009093F600DF91CF911F910F91FF90EF9072
:10074000DF90CF90BF90AF909F908F900895CF9201
:10075000DF92EF92FF9220911101253009F06FC0D6
:10076000DC01CB01C090F800D090F900E090FA00D5
:10077000F090FB00BC01CD016C197D098E099F0929
:1007800025E030E040E050E030D5CA01B901E8D3BF
:100790009B01AC0160E070E68AE697E448D3B4D3ED
:1007A000683522E0720708F040C07093060160933C
:1007B00005019B0122953295307F3227207F322719
:1007C000A901461B570BBA01660F771F660F771FEB
:1007D00080E090E0C5D3209107013091080140915D
:1007E000090150910A0172D46B017C0160932D01C3
:1007F00070932E0180932F0190933001209101017D
:100800003091020140910301509104015BD488238F
:1008100044F0C0920101D0920201E0920301F092F3
:100820000401C701B6011ADFCADD1092110110924E
:10083000F8001092F9001092FA001092FB00FF905D
:10084000EF90DF90CF90089580E886BD16BC2FEF23
:1008500030E742E0215030404040E1F700C0000066
:1008600018D18EE190E06ED120E040E060E080E0C1
:100870003BD12FEF4FEF6FEF8FEF36D15FEF89E670
:1008800098E1515080409040E1F700C00000C39AC9
:10089000BC9A05DD1DDD81E08093260181E090E0BA
:1008A000DAD491E0811101C090E09093100180E0D2
:1008B00090E0D1D491E0811101C090E090932C019F
:1008C0004FDD7DDD38DD6B017C018091FC008823EC
:1008D000E1F11092FC00C0923101D0923201E0921D
:1008E0003301F09234018091F8009091F900A091C9
:1008F000FA00B091FB00892B8A2B8B2B41F4C0921C
:10090000F800D092F900E092FA00F092FB0080919A
:1009100011018F5F8093110120910701309108012F
:100920004091090150910A0160910B0170910C01F5
:1009300080910D0190910E0112D260930B01709382
:100940000C0180930D0190930E0186B3B701A601AF
:1009500088700EDEC701B601FADE809131019091F8
:100960003201A0913301B0913401A7019601281BF7
:10097000390B4A0B5B0BDA01C901883B9B40A1058F
:10098000B10550F120E030E0A90160912D01709196
:100990002E0180912F019091300145D2811105C027
:1009A0008091110181508430B8F410922D01109281
:1009B0002E0110922F011092300110920601109218
:1009C0000501109211011092F8001092F900109296
:1009D000FA001092FB00F3DC80913101909132011A
:1009E000A0913301B0913401C81AD90AEA0AFB0A6E
:1009F00040E2C4164EE4D406E104F10460F0109223
:100A00003101109232011092330110923401809121
:100A1000100181116FDD8FEC97E00197F1F700C0B5
:100A2000000050CFB89ABA9AC29AC09AC098C29899
:100A30000895C298C098C29AC09AB898089520E0C4
:100A400030E090E0AC01022E02C0440F551F0A9422
:100A5000E2F747FF02C0C09A01C0C098C29AC2988C
:100A60002F5F3F4F2830310569F7C09AC29AC2986C
:100A70000895D8DF88E7E3DF80E0E1DF0895D2DF83
:100A800088E7DDDF80E4DBDF0895D9DF0895D1DF7B
:100A900008950F931F93CF93DF93EBDFC6E4D2E06B
:100AA00006E612E0FE018491CADF2196C017D10745
:100AB000C9F7BFDFDF91CF911F910F910895CF93B9
:100AC000DF93C82FD62FD5DF8D2F8770806BB7DFD0
:100AD0008C2F8F70B4DF8C2F82958F708061AFDF89
:100AE000A8DFDF91CF910895EF92FF920F931F93AC
:100AF000CF93DF93E82EF62E042F122F60E080E0D4
:100B0000DEDFBDDFC0E0D1E08E2D99DF8F2D97DFD6
:100B1000802F95DF812F93DF2197B1F78ADFDF9157
:100B2000CF911F910F91FF90EF900895CF93C82F11
:100B3000A0DFC11102C08EEA01C08FEA80DF79DF39
:100B4000CF910895909342018093410108950F93AE
:100B50001F93CF93DF9390E08C01000F111F000FC4
:100B6000111F880F991F080F191FE801C05CD109D8
:100B700086DF0A5B1109E0914101F0914201EC0F1F
:100B8000FD1F849182DF2196C017D107A1F77FDF77
:100B9000DF91CF911F910F910895CF93DF93EC01D7
:100BA0008881882329F02196D2DF89918111FCCF99
:100BB000DF91CF910895CF92DF92EF92FF920F9342
:100BC0001F93CF93DF93EC017B016A018B0102C07D
:100BD0008D01E901CE01B601F5D29B01D801119634
:100BE000C601DFD2FE01E81BF90BE755FF4F83A1D9
:100BF000F80180832115310559F7DD231CF4119686
:100C00008DE28183FD0131971C92EE16FF0650F4B0
:100C1000D701E701808131979D9191838993AE1728
:100C2000BF07C0F3C701DF91CF911F910F91FF90D4
:100C3000EF90DF90CF9008954AE050E067E371E0D5
:100C4000BADFABDF08952F923F924F925F926F927F
:100C50007F928F929F92AF92BF92CF92DF92EF924C
:100C6000FF920F931F93CF93DF93CDB7DEB7A49777
:100C70000FB6F894DEBF0FBECDBF6B017C013A0109
:100C8000890184E2E0E6F0E0DE01119601900D9228
:100C90008A95E1F7C701B60132D14B015C014AE008
:100CA00050E0B801C40187DFF8018081882341F05A
:100CB000C8010196FC01019620812111FBCF01C0E2
:100CC000F8018EE281931F01660C771C660C771C7D
:100CD000FE01E60DF71D618172818381948142D10D
:100CE0002B013C01C501B4013DD19B01AC01C70101
:100CF000B60134D09B01AC01C301B201E7D1FFD0F2
:100D0000DC01CB01BB233CF4B095A0959095819577
:100D10009F4FAF4FBF4F4AE050E0B1014CDFC801D9
:100D2000A4960FB6F894DEBF0FBECDBFDF91CF9172
:100D30001F910F91FF90EF90DF90CF90BF90AF90F9
:100D40009F908F907F906F905F904F903F902F90EB
:100D5000089527E331E077DF20DF08955058BB275F
:100D6000AA270ED075C166D130F06BD120F031F4D6
:100D70009F3F11F41EF45BC10EF4E095E7FB51C1F7
:100D8000E92F77D180F3BA176207730784079507B5
:100D900018F071F49EF58FC10EF4E0950B2EBA2F6A
:100DA000A02D0B01B90190010C01CA01A001112471
:100DB000FF27591B99F0593F50F4503E68F11A161D
:100DC000F040A22F232F342F4427585FF3CF4695AE
:100DD00037952795A795F0405395C9F77EF41F16D0
:100DE000BA0B620B730B840BBAF09150A1F0FF0F9A
:100DF000BB1F661F771F881FC2F70EC0BA0F621F86
:100E0000731F841F48F4879577956795B795F79575
:100E10009E3F08F0B3CF9395880F08F09927EE0F07
:100E2000979587950895D9D008F481E008950CD05E
:100E30000FC107D140F0FED030F021F45F3F19F030
:100E4000F0C0511139C1F3C014D198F39923C9F3FB
:100E50005523B1F3951B550BBB27AA2762177307C0
:100E6000840738F09F5F5F4F220F331F441FAA1F74
:100E7000A9F333D00E2E3AF0E0E830D09150504034
:100E8000E695001CCAF729D0FE2F27D0660F771FE2
:100E9000881FBB1F261737074807AB07B0E809F0C4
:100EA000BB0B802DBF01FF2793585F4F2AF09E3F59
:100EB000510568F0B6C000C15F3FECF3983EDCF32B
:100EC000869577956795B795F7959F5FC9F7880FD2
:100ED000911D9695879597F90895E1E0660F771F24
:100EE000881FBB1F621773078407BA0720F0621BB5
:100EF000730B840BBA0BEE1F88F7E095089504D0AE
:100F00006894B111D9C00895BCD088F09F5790F073
:100F1000B92F9927B751A0F0D1F0660F771F881F1E
:100F2000991F1AF0BA95C9F712C0B13081F0C3D039
:100F3000B1E00895C0C0672F782F8827B85F39F0D7
:100F4000B93FCCF3869577956795B395D9F73EF47D
:100F500090958095709561957F4F8F4F9F4F089525
:100F6000E89409C097FB3EF4909580957095619543
:100F70007F4F8F4F9F4F9923A9F0F92F96E9BB27F9
:100F80009395F695879577956795B795F111F8CF75
:100F9000FAF4BB0F11F460FF1BC06F5F7F4F8F4FE0
:100FA0009F4F16C0882311F096E911C0772321F0D6
:100FB0009EE8872F762F05C0662371F096E8862F6E
:100FC00070E060E02AF09A95660F771F881FDAF7C5
:100FD000880F9695879597F90895990F0008550FF2
:100FE000AA0BE0E8FEEF16161706E807F907C0F0AF
:100FF00012161306E407F50798F0621B730B840BB7
:10100000950B39F40A2661F0232B242B252B21F490
:1010100008950A2609F4A140A6958FEF811D811D30
:10102000089597F99F6780E870E060E008959FEF6A
:1010300080EC089500240A9416161706180609066F
:10104000089500240A94121613061406050608953E
:10105000092E0394000C11F4882352F0BB0F40F4C6
:10106000BF2B11F460FF04C06F5F7F4F8F4F9F4F06
:10107000089557FD9058440F551F59F05F3F71F088
:101080004795880F97FB991F61F09F3F79F08795EF
:101090000895121613061406551FF2CF4695F1DF78
:1010A00008C0161617061806991FF1CF8695710508
:1010B000610508940895E894BB2766277727CB013C
:1010C00097F908958ADF08F48FEF08950AD0C0CF0A
:1010D000B1DF28F0B6DF18F0952309F0A2CFA7CF33
:1010E000EBCFC7DFA8F39923D9F35523C9F3950FA5
:1010F00050E0551FAA27EE27FF27BB27002408949E
:10110000679520F4E20FF31FB41F0A1E220F331F4E
:10111000441FAA1F6695A9F7779530F4F30FB41F03
:101120000A1E121E08F46395330F441FAA1F221FC4
:10113000769599F7879520F4B40F0A1E121E631F47
:10114000440FAA1F221F331F8695A9F7862F712DE2
:10115000602D11249F5750408AF0E1F088234AF017
:10116000EE0FFF1FBB1F661F771F881F9150504057
:10117000A9F79E3F510570F054CF9ECF5F3FECF32F
:10118000983EDCF3869577956795B795F795E79543
:101190009F5FC1F7FE2B880F911D9695879597F954
:1011A00008950024552704C0080E591F880F991F61
:1011B000009729F076956795B8F37105B9F7802DFA
:1011C000952F089597FB072E16F4009406D077FD0F
:1011D00008D02DD007FC05D03EF4909581959F4F07
:1011E0000895709561957F4F0895A1E21A2EAA1B6C
:1011F000BB1BFD010DC0AA1FBB1FEE1FFF1FA217C7
:10120000B307E407F50720F0A21BB30BE40BF50BC3
:10121000661F771F881F991F1A9469F7609570954C
:10122000809590959B01AC01BD01CF010895AA1B4B
:10123000BB1B51E107C0AA1FBB1FA617B70710F0C1
:10124000A61BB70B881F991F5A95A9F780959095F3
:10125000BC01CD010895E199FECF9FBB8EBBE09A02
:1012600099278DB30895262FE199FECF1CBA9FBB15
:101270008EBB2DBB0FB6F894E29AE19A0FBE019691
:061280000895F894FFCF71
:10128600000000000A00000064000000E8030000FF
:1012960010270000A086010040420F0080969800AB
:1012A60000E1F5056F6E006F666600206B6D2F68B6
:1012B60000206B6D002072706D0070777220736174
:1012C60076653A006C65643A007A79787776757453
:1012D600737271706F6E6D6C6B6A69686766656450
:1012E600636261393837363534333231303132332F
:1012F6003435363738396162636465666768696AAA
:101306006B6C6D6E6F707172737475767778797AAF
:021316000000D5
:00000001FF
