S00C000056656C6F2E7372656382
S113000032C156C14BC1B3C249C148C147C146C13F
S113001045C144C170C142C141C140C13FC100009A
S1130020000000000000002F00000000070007008F
S113003000147F147F1400242A7F2A1200626408AB
S11300401323003649552250000005030000000028
S11300501C224100000041221C000014083E081428
S11300600008083E0808000000A060000008080816
S11300700808000060600000002010080402003E30
S11300805149453E0000427F4000004261514946CB
S1130090002141454B31001814127F1000274545BB
S11300A04539003C4A4949300001710905030036CD
S11300B04949493600064949291E000036360000E0
S11300C000005636000000081422410000141414E5
S11300D014140000412214080002015109060032E0
S11300E04959513E007C1211127C007F494949361E
S11300F0003E41414122007F4141221C007F494989
S11301004941007F09090901003E4149497A007FBC
S11301100808087F0000417F4100002040413F0162
S1130120007F08142241007F40404040007F020CC1
S1130130027F007F0408107F003E4141413E007F62
S113014009090906003E4151215E007F091929462B
S11301500046494949310001017F0101003F404007
S1130160403F001F2040201F003F4038403F0063B5
S113017014081463000708700807006151494543D7
S113018000007F41410000552A552A550000414195
S11301907F0000040201020400404040404000008F
S11301A001020400002054545478007F4844443829
S11301B000384444442000384444487F00385454B0
S11301C0541800087E0901020018A4A4A47C007F2E
S11301D0080404780000447D4000004080847D00D1
S11301E0007F102844000000417F4000007C041878
S11301F00478007C0804047800384444443800FC43
S1130200242424180018242418FC007C080404085E
S113021000485454542000043F444020003C4040D3
S1130220207C001C2040201C003C4030403C00440A
S113023028102844001CA0A0A07C004464544C4412
S1130240141414141414AED5F0A83FD300408D1424
S11302502000A1C8DA12813FD922DB20A4A62EAF48
S113026022003F21007F11241FBECFE5D2E0DEBF74
S1130270CDBF11E0A0E6B0E0EEE9F2E102C00590E6
S11302800D92A030B107D9F721E0A0E0B1E001C0A0
S11302901D92A135B207E1F7E8D2FFC7B1CEF894B9
S11302A085B7836085BF8BB780648BBF78940895CE
S11302B01F920F920FB60F9211248F939F9381E098
S11302C080930A0198B380E1892788BB9F918F911D
S11302D00F900FBE0F901F901895F8948AB5826006
S11302E08ABD8DE789BD83B7836083BF89B7806189
S11302F089BF789408951F920F920FB60F9211241C
S11303008F939F93AF93BF9380910B0190910C01B6
S1130310A0910D01B0910E010196A11DB11D809314
S11303200B0190930C01A0930D01B0930E01BF91AA
S1130330AF919F918F910F900FBE0F901F901895C2
S11303402FB7F89460910B0170910C0180910D010D
S113035090910E012FBF08959FEF980F9E3F20F4B8
S1130360682F82E090E08BD7089582E090E07FD7F9
S11303708F3F19F481E4F0DF81E4682F70E080E0BE
S113038090E0FCD523EC35EF48E450E4ABD620E014
S113039030E543EC57E457D560931501709316018B
S11303A08093170190931801089580933401CAD360
S11303B00895809144018F5F853019F08093440142
S11303C0089510924401089520E040E060E080E048
S11303D097D380914401823009F45FC028F48823C4
S11303E051F0813089F10895833009F462C084307A
S11303F009F473C0089560E080E06DD38FE990E064
S1130400D8D360913B0170913C0180913D01909162
S11304103E0141E050E0A9D48BE890E0CAD36AE001
S113042080E059D381E990E0C4D3609119017091BF
S11304301A0180911B0190911C0142E050E095D477
S113044085E990E0B6D3089560E080E044D389E97B
S113045090E0AFD360910F01709110018091110170
S11304609091120141E050E080D48BE890E0A1D358
S11304706AE080E030D38EE990E09BD36091010183
S113048070910201809103019091040141E050E0D8
S11304906CD48BE890E08DD3089560E080E01BD3AA
S11304A08091130190911401D3D383EA90E081D316
S11304B0089560E080E00FD388EA90E07AD36AE0A0
S11304C080E009D380911E01811103C087E890E088
S11304D002C084E890E06DD3089560E080E0FBD230
S11304E082EB90E066D36AE080E0F5D2809143012C
S11304F0811103C087E890E002C084E890E059D3FA
S1130500089560911E0181E0682760931E0181E0D7
S113051090E0B5D6089580E048DFC49885B7877E1B
S1130520806185BFF89485B7806285BF85B784688C
S113053085BF8B7F85BF7894889585B78F7D85BF70
S1130540789408958093430110BE1DBC19BE88237E
S113055069F0F89480B7806880BF84EF8DBD80B760
S11305608E6080BF89B7806489BF789408951F9294
S11305700F920FB60F9211248F939F9398B380E13B
S1130580892788BB9F918F910F900FBE0F901F906A
S11305901895CF92DF92EF92FF926A017B019091BE
S11305A00501911164C0811165C081E0809305014A
S11305B040933601509337016093380170933901A9
S11305C013C01092050180910001811106C0809131
S11305D03401882311F0EDDEF7DE109200018091E2
S11305E00501811105C046C080910001811142C0FE
S11305F08091360190913701A0913801B091390171
S1130600A7019601281B390B4A0B5B0BDA01C901C0
S1130610843F9140A105B10568F181E08093000118
S113062080914401833019F08430A1F01AC0909174
S11306301E0181E0892765DFC7DE80911E018823C2
S1130640C9F0C0923F01D0924001E0924101F09282
S1130650420110C09091430181E0892773DFB4DE29
S113066009C09091340181E089279FDE03C0811184
S1130670A8CFBACFFF90EF90DF90CF9008958F92DC
S11306809F92AF92BF92CF92DF92EF92FF920F931D
S11306901F93CF93DF936B017C0120E030E0A9012D
S11306A0CED3882309F457C0E0911D0181E08E0F59
S11306B080931D01F0E0EE0FFF1FEE0FFF1FE05EC1
S11306C0FE4FC082D182E282F382853009F043C0BA
S11306D010921D01C0E2D1E004E311E060E070E09B
S11306E0CB01299139914991599145D3C017D1072B
S11306F0C1F720E030E040EA50E4A5D34B015C01AF
S1130700C0900101D0900201E0900301F090040137
S113071020E030E0A901C701B60191D3811109C0DD
S11307208092010190920201A0920301B09204010F
S113073012C0A7019601C501B4011DD320E030E029
S113074040E05FE3CFD46093010170930201809392
S1130750030190930401DF91CF911F910F91FF90BA
S1130760EF90DF90CF90BF90AF909F908F900895BF
S1130770CF92DF92EF92FF9220911F01253009F072
S11307806FC0DC01CB01C0900601D0900701E0905E
S11307900801F0900901BC01CD016C197D098E0995
S11307A09F0925E030E040E050E02BD5CA01B901B3
S11307B0E3D39B01AC0160E070E68AE697E443D39F
S11307C0AFD3683522E0720708F040C0709314017B
S11307D0609313019B0122953295307F3227207F4D
S11307E03227A901461B570BBA01660F771F660F04
S11307F0771F80E090E0C0D320911501309116015D
S113080040911701509118016DD46B017C016093E4
S11308103B0170933C0180933D0190933E012091F4
S11308200F0130911001409111015091120156D4E1
S1130830882344F0C0920F01D0921001E09211017C
S1130840F0921201C701B6011ADFBEDD10921F013A
S113085010920601109207011092080110920901EA
S1130860FF90EF90DF90CF90089580E886BD16BC8E
S11308702FEF30E742E0215030404040E1F700C024
S1130880000013D18EE190E069D120E040E060E007
S113089080E036D15FEF89E698E151508040904086
S11308A0E1F700C00000C39ABC9AF9DC16DD81E0D0
S11308B08093340181E090E0DAD491E0811101C0A9
S11308C090E090931E0180E090E0D1D491E08111FA
S11308D001C090E090933A0148DD76DD31DD6B0193
S11308E07C0180910A018823E1F110920A01C092EF
S11308F03F01D0924001E0924101F0924201809187
S1130900060190910701A0910801B0910901892B7A
S11309108A2B8B2B41F4C0920601D0920701E092FE
S11309200801F092090180911F018F5F80931F01DC
S11309302091150130911601409117015091180131
S11309406091190170911A0180911B0190911C0111
S113095012D26093190170931A0180931B01909332
S11309601C0186B3B701A601887013DEC701B60166
S1130970FFDE80913F0190914001A0914101B0912F
S11309804201A7019601281B390B4A0B5B0BDA01C4
S1130990C901883B9B40A105B10550F120E030E03E
S11309A0A90160913B0170913C0180913D019091BE
S11309B03E0145D2811105C080911F0181508430D0
S11309C0B8F410923B0110923C0110923D01109238
S11309D03E01109214011092130110921F01109203
S11309E00601109207011092080110920901ECDC33
S11309F080913F0190914001A0914101B091420149
S1130A00C81AD90AEA0AFB0A40E2C4164EE4D4061C
S1130A10E104F10460F010923F0110924001109241
S1130A2041011092420180911E01811174DD8FEC0D
S1130A3097E00197F1F700C0000050CFB89AB99A37
S1130A40C19AC09AC098C1980895C198C098C19A93
S1130A50C09AB898089520E030E090E0AC01022EEE
S1130A6002C0440F551F0A94E2F747FF02C0C09A20
S1130A7001C0C098C19AC1982F5F3F4F28303105FB
S1130A8069F7C09AC19AC1980895D8DF88E7E3DF6F
S1130A9080E0E1DF0895D2DF88E7DDDF80E4DBDF9B
S1130AA00895D9DF0895D1DF08950F931F93CF934D
S1130AB0DF93EBDFC6E4D2E006E612E0FE018491A8
S1130AC0CADF2196C017D107C9F7BFDFDF91CF91E5
S1130AD01F910F910895CF93DF93C82FD62FD5DFA1
S1130AE08D2F8770806BB7DF8C2F8F70B4DF8C2FC6
S1130AF082958F708061AFDFA8DFDF91CF91089579
S1130B00EF92FF920F931F93CF93DF93E82EF62E6D
S1130B10042F122F60E080E0DEDFBDDFC0E0D1E013
S1130B208E2D99DF8F2D97DF802F95DF812F93DF17
S1130B302197B1F78ADFDF91CF911F910F91FF9039
S1130B40EF900895CF93C82FA0DFC11102C08EEAA1
S1130B5001C08FEA80DF79DFCF910895909350012F
S1130B6080934F0108950F931F93CF93DF9390E0E9
S1130B708C01000F111F000F111F880F991F080F00
S1130B80191FE801C05CD10986DF0A5B1109E091F5
S1130B904F01F0915001EC0FFD1F849182DF2196EB
S1130BA0C017D107A1F77FDFDF91CF911F910F917C
S1130BB00895CF93DF93EC018881882329F021964F
S1130BC0D2DF89918111FCCFDF91CF910895CF922B
S1130BD0DF92EF92FF920F931F93CF93DF93EC0179
S1130BE07B016A018B0102C08D01E901CE01B601CE
S1130BF0F5D29B01D8011196C601DFD2FE01E81B94
S1130C00F90BE954FF4F83A1F801808321153105C5
S1130C1059F7DD231CF411968DE28183FD01319790
S1130C201C92EE16FF0650F4D701E701808131973C
S1130C309D9191838993AE17BF07C0F3C701DF91DC
S1130C40CF911F910F91FF90EF90DF90CF90089577
S1130C504AE050E065E471E0BADFABDF08952F921B
S1130C603F924F925F926F927F928F929F92AF9238
S1130C70BF92CF92DF92EF92FF920F931F93CF9385
S1130C80DF93CDB7DEB7A4970FB6F894DEBF0FBEDF
S1130C90CDBF6B017C013A01890184E2E0E6F0E01A
S1130CA0DE01119601900D928A95E1F7C701B60114
S1130CB032D14B015C014AE050E0B801C40187DF46
S1130CC0F8018081882341F0C8010196FC01019656
S1130CD020812111FBCF01C0F8018EE281931F0115
S1130CE0660C771C660C771CFE01E60DF71D61810E
S1130CF072818381948142D12B013C01C501B401ED
S1130D003DD19B01AC01C701B60134D09B01AC01BC
S1130D10C301B201E7D1FFD0DC01CB01BB233CF41A
S1130D20B095A095909581959F4FAF4FBF4F4AE0E6
S1130D3050E0B1014CDFC801A4960FB6F894DEBFB1
S1130D400FBECDBFDF91CF911F910F91FF90EF9018
S1130D50DF90CF90BF90AF909F908F907F906F90D7
S1130D605F904F903F902F90089525E431E077DF16
S1130D7020DF08955058BB27AA270ED075C166D12D
S1130D8030F06BD120F031F49F3F11F41EF45BC1BD
S1130D900EF4E095E7FB51C1E92F77D180F3BA1740
S1130DA0620773078407950718F071F49EF58FC1E5
S1130DB00EF4E0950B2EBA2FA02D0B01B901900172
S1130DC00C01CA01A0011124FF27591B99F0593FB6
S1130DD050F4503E68F11A16F040A22F232F342FFE
S1130DE04427585FF3CF469537952795A795F0404C
S1130DF05395C9F77EF41F16BA0B620B730B840B61
S1130E00BAF09150A1F0FF0FBB1F661F771F881F18
S1130E10C2F70EC0BA0F621F731F841F48F4879570
S1130E2077956795B795F7959E3F08F0B3CF93955F
S1130E30880F08F09927EE0F979587950895D9D0D4
S1130E4008F481E008950CD00FC107D140F0FED022
S1130E5030F021F45F3F19F0F0C0511139C1F3C0F3
S1130E6014D198F39923C9F35523B1F3951B550B6A
S1130E70BB27AA2762177307840738F09F5F5F4F69
S1130E80220F331F441FAA1FA9F333D00E2E3AF0AA
S1130E90E0E830D091505040E695001CCAF729D0C4
S1130EA0FE2F27D0660F771F881FBB1F2617370713
S1130EB04807AB07B0E809F0BB0B802DBF01FF2743
S1130EC093585F4F2AF09E3F510568F0B6C000C1A9
S1130ED05F3FECF3983EDCF3869577956795B7957D
S1130EE0F7959F5FC9F7880F911D9695879597F998
S1130EF00895E1E0660F771F881FBB1F6217730711
S1130F008407BA0720F0621B730B840BBA0BEE1F25
S1130F1088F7E095089504D06894B111D9C0089574
S1130F20BCD088F09F5790F0B92F9927B751A0F003
S1130F30D1F0660F771F881F991F1AF0BA95C9F769
S1130F4012C0B13081F0C3D0B1E00895C0C0672FA2
S1130F50782F8827B85F39F0B93FCCF38695779519
S1130F606795B395D9F73EF4909580957095619502
S1130F707F4F8F4F9F4F0895E89409C097FB3EF42D
S1130F8090958095709561957F4F8F4F9F4F9923D2
S1130F90A9F0F92F96E9BB279395F6958795779550
S1130FA06795B795F111F8CFFAF4BB0F11F460FF10
S1130FB01BC06F5F7F4F8F4F9F4F16C0882311F068
S1130FC096E911C0772321F09EE8872F762F05C07C
S1130FD0662371F096E8862F70E060E02AF09A9517
S1130FE0660F771F881FDAF7880F9695879597F90C
S1130FF00895990F0008550FAA0BE0E8FEEF1616A6
S11310001706E807F907C0F012161306E407F507F8
S113101098F0621B730B840B950B39F40A2661F06C
S1131020232B242B252B21F408950A2609F4A1400F
S1131030A6958FEF811D811D089597F99F6780E81C
S113104070E060E008959FEF80EC089500240A9416
S11310501616170618060906089500240A9412168F
S11310601306140605060895092E0394000C11F4C2
S1131070882352F0BB0F40F4BF2B11F460FF04C06F
S11310806F5F7F4F8F4F9F4F089557FD9058440FC8
S1131090551F59F05F3F71F04795880F97FB991FD3
S11310A061F09F3F79F08795089512161306140690
S11310B0551FF2CF4695F1DF08C01616170618061D
S11310C0991FF1CF86957105610508940895E894F8
S11310D0BB2766277727CB0197F908958ADF08F4A1
S11310E08FEF08950AD0C0CFB1DF28F0B6DF18F033
S11310F0952309F0A2CFA7CFEBCFC7DFA8F399239D
S1131100D9F35523C9F3950F50E0551FAA27EE27AD
S1131110FF27BB2700240894679520F4E20FF31FF0
S1131120B41F0A1E220F331F441FAA1F6695A9F776
S1131130779530F4F30FB41F0A1E121E08F463955A
S1131140330F441FAA1F221F769599F7879520F421
S1131150B40F0A1E121E631F440FAA1F221F331F3F
S11311608695A9F7862F712D602D11249F57504025
S11311708AF0E1F088234AF0EE0FFF1FBB1F661FC1
S1131180771F881F91505040A9F79E3F510570F07A
S113119054CF9ECF5F3FECF3983EDCF38695779572
S11311A06795B795F795E7959F5FC1F7FE2B880F75
S11311B0911D9695879597F908950024552704C0A5
S11311C0080E591F880F991F009729F07695679587
S11311D0B8F37105B9F7802D952F089597FB072E65
S11311E016F4009406D077FD08D02DD007FC05D066
S11311F03EF4909581959F4F0895709561957F4F2A
S11312000895A1E21A2EAA1BBB1BFD010DC0AA1F43
S1131210BB1FEE1FFF1FA217B307E407F50720F05B
S1131220A21BB30BE40BF50B661F771F881F991FD6
S11312301A9469F760957095809590959B01AC011F
S1131240BD01CF010895AA1BBB1B51E107C0AA1F12
S1131250BB1FA617B70710F0A61BB70B881F991F53
S11312605A95A9F780959095BC01CD010895E1990F
S1131270FECF9FBB8EBBE09A99278DB30895262F8E
S1131280E199FECF1CBA9FBB8EBB2DBB0FB6F89461
S1111290E29AE19A0FBE01960895F894FFCFFA
S113129E000000000A00000064000000E8030000E3
S11312AE10270000A086010040420F00809698008F
S11312BE00E1F5056F6E006F666600206B6D2F689A
S11312CE00643A2000206B6D006D733A2000617348
S11312DE3A20002072706D0070777220736176650B
S11312EE3A006C65643A007A79787776757473721D
S11312FE71706F6E6D6C6B6A696867666564636244
S113130E613938373635343332313031323334355E
S113131E363738396162636465666768696A6B6C0F
S113132E6D6E6F707172737475767778797A00005A
S9030000FC
