S00C000056656C6F2E7372656382
S11300000EC01DC01CC01BC01AC019C018C017C028
S113001016C015C014C013C012C011C010C01124E2
S11300201FBECFE5D2E0DEBFCDBF20E0A0E6B0E04A
S113003001C01D92A23AB207E1F7B1D1CBC4E0CF1F
S11300409FEF980F9E3F20F4682F82E090E0B4D495
S1130050089582E090E0A8D48F3F19F481E4F0DFA2
S113006081E4682F70E080E090E05DD323EC35EF0D
S113007048E450E40CD420E030E543EC57E4BDD22E
S11300806093710070937200809373009093740076
S113009008958091A1008F5F853019F08093A100AD
S11300A008951092A100089560917B0081E0682773
S11300B060937B0081E090E07FD4089510929100DA
S11300C01092A00081E08093790008958F929F920E
S11300D0AF92BF92CF92DF92EF92FF920F931F9352
S11300E0CF93DF936B017C0120E030E0A90181D242
S11300F0882309F457C0E0917A0081E08E0F809341
S11301007A00F0E0EE0FFF1FEE0FFF1FE358FF4FE2
S1130110C082D182E282F382853009F043C010921A
S11301207A00CDE7D0E001E910E060E070E0CB01B7
S11301302991399149915991F8D1C017D107C1F743
S113014020E030E040EA50E458D24B015C01C0901A
S11301506100D0906200E0906300F090640020E0C1
S113016030E0A901C701B60144D2811109C08092CF
S1130170610090926200A0926300B092640012C089
S1130180A7019601C501B401D0D120E030E040E0E0
S11301905FE37DD36093610070936200809363009A
S11301A090936400DF91CF911F910F91FF90EF9096
S11301B0DF90CF90BF90AF909F908F900895CF9293
S11301C0DF92EF92FF926A017B0190916500911199
S11301D062C0811163C081E0809365004093930005
S11301E050939400609395007093960011C0109200
S11301F0650080916000811104C08091910081119B
S113020048DF1092600080916500811105C046C0EE
S113021080916000811142C080919300909194007C
S1130220A0919500B0919600A7019601281B390B67
S11302304A0B5B0BDA01C9018E3E9240A105B10560
S113024068F181E0809360008091A100833019F00F
S1130250863099F019C090917B0081E0892724DFD2
S113026080917B008823D1F0C0929C00D0929D00A5
S1130270E0929E00F0929F0011C09091A00081E056
S113028089278093A0000AC09091910081E089277A
S11302908093910003C08111AACFBACFFF90EF9051
S11302A0DF90CF900895CF92DF92EF92FF9220914A
S11302B07C00253009F06EC0DC01CB01C0906600E3
S11302C0D0906700E0906800F0906900BC01CD0117
S11302D06C197D098E099F0925E030E040E050E06B
S11302E041D3CA01B9011DD29B01AC0160E070E6A3
S11302F08AE697E482D1E9D1683522E0720708F0F2
S11303003FC07093700060936F009B0122953295FB
S1130310307F3227207F3227A901461B570BBA01B1
S1130320660F771F660F771F80E090E0FAD1209167
S11303307100309172004091730050917400A7D203
S11303406B017C01609398007093990080939A00EC
S113035090939B0020916B0030916C0040916D0054
S113036050916E0090D2882344F0C0926B00D092DA
S11303706C00E0926D00F0926E00C701B601A6DE3B
S113038010927C0010926600109267001092680030
S113039010926900FF90EF90DF90CF900895C49A77
S11303A0BD9A81E08093910081E090E0FDD291E0DC
S11303B0811101C090E090937B0080E090E0F4D242
S11303C091E0811101C090E09093970042DEC1E07A
S11303D080917900882321F010927900C0939100D4
S11303E086B340E050E0BA018071E9DE80916A0092
S11303F08823E1F110926A0010929C0010929D00F3
S113040010929E0010929F00809166009091670068
S1130410A0916800B0916900892B8A2B8B2B41F441
S113042010926600109267001092680010926900A2
S113043080917C008F5F80937C00209171003091CB
S11304407200409173005091740060917500709136
S11304507600809177009091780067D06093750062
S113046070937600809377009093780060E070E05A
S1130470CB0119DFC0909C00D0909D00E0909E00BD
S1130480F0909F00F094E094D094C094C11CD11CCF
S1130490E11CF11C88EBC8168BE0D806E104F104DA
S11304A048F120E030E0A901609198007091990032
S11304B080919A0090919B009CD0811105C08091FD
S11304C07C0081508430B0F410929800109299000E
S11304D010929A0010929B001092700010926F007C
S11304E010927C00109266001092670010926800CF
S11304F01092690090E2C9169EE4D906E104F10461
S113050060F010929C0010929D0010929E00109238
S11305109F0080917B008111D1DD83EF91E00197F1
S1130520F1F700C0000054CF5058BB27AA270ED0C3
S113053070C161D130F066D120F031F49F3F11F4E5
S11305401EF456C10EF4E095E7FB4CC1E92F72D1BD
S113055080F3BA17620773078407950718F071F4DC
S11305609EF58AC10EF4E0950B2EBA2FA02D0B0137
S1130570B90190010C01CA01A0011124FF27591BE4
S113058099F0593F50F4503E68F11A16F040A22FEA
S1130590232F342F4427585FF3CF4695379527955B
S11305A0A795F0405395C9F77EF41F16BA0B620B5A
S11305B0730B840BBAF09150A1F0FF0FBB1F661FA1
S11305C0771F881FC2F70EC0BA0F621F731F841FE4
S11305D048F4879577956795B795F7959E3F08F00A
S11305E0B3CF9395880F08F09927EE0F97958795C9
S11305F00895D4D008F481E008950CD00AC102D142
S113060040F0F9D030F021F45F3F19F0EBC0511104
S113061034C1EEC00FD198F39923C9F35523B1F334
S1130620951B550BBB27AA2762177307840738F05D
S11306309F5F5F4F220F331F441FAA1FA9F333D0BC
S11306400E2E3AF0E0E830D091505040E695001C70
S1130650CAF729D0FE2F27D0660F771F881FBB1F2C
S1130660261737074807AB07B0E809F0BB0B802D06
S1130670BF01FF2793585F4F2AF09E3F510568F052
S1130680B1C0FBC05F3FECF3983EDCF386957795F1
S11306906795B795F7959F5FC9F7880F911D969554
S11306A0879597F90895E1E0660F771F881FBB1FB0
S11306B0621773078407BA0720F0621B730B840B5D
S11306C0BA0BEE1F88F7E0950895BCD088F09F57C9
S11306D090F0B92F9927B751A0F0D1F0660F771F8A
S11306E0881F991F1AF0BA95C9F712C0B13081F06A
S11306F0C3D0B1E00895C0C0672F782F8827B85FB2
S113070039F0B93FCCF3869577956795B395D9F7CA
S11307103EF490958095709561957F4F8F4F9F4FD4
S11307200895E89409C097FB3EF4909580957095E0
S113073061957F4F8F4F9F4F9923A9F0F92F96E929
S1130740BB279395F695879577956795B795F1119E
S1130750F8CFFAF4BB0F11F460FF1BC06F5F7F4F3B
S11307608F4F9F4F16C0882311F096E911C077234D
S113077021F09EE8872F762F05C0662371F096E856
S1130780862F70E060E02AF09A95660F771F881F25
S1130790DAF7880F9695879597F90895990F0008C9
S11307A0550FAA0BE0E8FEEF16161706E807F9073F
S11307B0C0F012161306E407F50798F0621B730BDA
S11307C0840B950B39F40A2661F0232B242B252B5B
S11307D021F408950A2609F4A140A6958FEF811DFE
S11307E0811D089597F99F6780E870E060E008959F
S11307F09FEF80EC089500240A9416161706180635
S11308000906089500240A94121613061406050610
S11308100895092E0394000C11F4882352F0BB0FA1
S113082040F4BF2B11F460FF04C06F5F7F4F8F4F04
S11308309F4F089557FD9058440F551F59F05F3F3F
S113084071F04795880F97FB991F61F09F3F79F0EE
S113085087950895121613061406551FF2CF469570
S1130860F1DF08C0161617061806991FF1CF8695F2
S11308707105610508940895E894BB2766277727D6
S1130880CB0197F908958ADF08F48FEF08950AD011
S1130890C0CFB1DF28F0B6DF18F0952309F0A2CF5E
S11308A0A7CFEBCFC7DFA8F39923D9F35523C9F317
S11308B0950F50E0551FAA27EE27FF27BB270024DA
S11308C00894679520F4E20FF31FB41F0A1E220F49
S11308D0331F441FAA1F6695A9F7779530F4F30FC9
S11308E0B41F0A1E121E08F46395330F441FAA1F77
S11308F0221F769599F7879520F4B40F0A1E121ECD
S1130900631F440FAA1F221F331F8695A9F7862F42
S1130910712D602D11249F5750408AF0E1F08823F7
S11309204AF0EE0FFF1FBB1F661F771F881F9150F1
S11309305040A9F79E3F510570F054CF9ECF5F3FC2
S1130940ECF3983EDCF3869577956795B795F79524
S1130950E7959F5FC1F7FE2B880F911D96958795AC
S113096097F90895A1E21A2EAA1BBB1BFD010DC025
S1130970AA1FBB1FEE1FFF1FA217B307E407F5074B
S113098020F0A21BB30BE40BF50B661F771F881F27
S1130990991F1A9469F760957095809590959B01BD
S11309A0AC01BD01CF010895E199FECF9FBB8EBB81
S11309B0E09A99278DB30895262FE199FECF1CBAAA
S11309C09FBB8EBB2DBB0FB6F894E29AE19A0FBE83
S10B09D001960895F894FFCF8D
S9030000FC
