S00C000056656C6F2E7372656382
S113000032C14CC14BC14AC149C148C147C146C1B3
S113001045C144C152C142C141C140C13FC1AED535
S1130020F0A83FD300408D142000A1C8DA12813F0C
S1130030D922DB20A4A62EAF22003F21007F00009E
S1130040000000000000002F00000000070007006F
S113005000147F147F1400242A7F2A12006264088B
S11300601323003649552250000005030000000008
S11300701C224100000041221C000014083E081408
S11300800008083E0808000000A0600000080808F6
S11300900808000060600000002010080402003E10
S11300A05149453E0000427F4000004261514946AB
S11300B0002141454B31001814127F10002745459B
S11300C04539003C4A4949300001710905030036AD
S11300D04949493600064949291E000036360000C0
S11300E000005636000000081422410000141414C5
S11300F014140000412214080002015109060032C0
S11301004959513E007C1211127C007F49494936FD
S1130110003E41414122007F4141221C007F494968
S11301204941007F09090901003E4149497A007F9C
S11301300808087F0000417F4100002040413F0142
S1130140007F08142241007F40404040007F020CA1
S1130150027F007F0408107F003E4141413E007F42
S113016009090906003E4151215E007F091929460B
S11301700046494949310001017F0101003F4040E7
S1130180403F001F2040201F003F4038403F006395
S113019014081463000708700807006151494543B7
S11301A000007F41410000552A552A550000414175
S11301B07F0000040201020400404040404000006F
S11301C001020400002054545478007F4844443809
S11301D000384444442000384444487F0038545490
S11301E0541800087E0901020018A4A4A47C007F0E
S11301F0080404780000447D4000004080847D00B1
S1130200007F102844000000417F4000007C041857
S11302100478007C0804047800384444443800FC22
S1130220242424180018242418FC007C080404083E
S113023000485454542000043F444020003C4040B3
S1130240207C001C2040201C003C4030403C0044EA
S113025028102844001CA0A0A07C004464544C44F2
S113026014141414141411241FBECFE5D2E0DEBFFD
S1130270CDBF10E0A0E6B0E0E6E5F3E102C00590F2
S11302800D92A03AB107D9F720E0A0EAB0E001C08E
S11302901D92A93FB207E1F7C5D25BC8B1CEF8946D
S11302A08AB582608ABD87E889BD83B7836083BFCE
S11302B089B7806189BF789408951F920F920FB611
S11302C00F9211248F939F93AF93BF938091AC00AF
S11302D09091AD00A091AE00B091AF000196A11D28
S11302E0B11D8093AC009093AD00A093AE00B09389
S11302F0AF00BF91AF919F918F910F900FBE0F9060
S11303001F9018952FB7F8946091AC007091AD00D0
S11303108091AE009091AF002FBF08959FEF980F8A
S11303209E3F20F4682F80E090E005D8089580E097
S113033090E0F9D78F3F19F480E4F0DF80E4682F70
S113034070E080E090E06BD623EC35EF48E450E4B5
S11303501AD720E030E543EC57E4C6D56093B700E4
S11303607093B8008093B9009093BA000895809375
S1130370E500FAD3089520E040E060E080E0D2D3C5
S11303808091F8008F5F843019F08093F80008950D
S11303901092F80008952F923F924F925F926F92BD
S11303A07F928F929F92AF92BF92CF92DF92EF9201
S11303B0FF920F931F93CF93DF938091F8008130C6
S11303C089F138F0823009F456C0833009F49EC0B4
S11303D0B0C060E080E08DD38FE890E0F2D360910C
S11303E0EF007091F0008091F1009091F20041E0F3
S11303F050E0D6D483E790E0E4D362E080E079D3A0
S11304008DE790E0DED36091BB007091BC008091D9
S1130410BD009091BE0042E050E0C2D481E890E07B
S1130420D0D387C060E080E064D389E890E0C9D38A
S11304306091B1007091B2008091B3009091B400CA
S113044041E050E0ADD483E790E0BBD362E080E0CC
S113045050D38EE890E0B5D36091A3007091A400CE
S11304608091A5009091A60041E050E099D483E7E3
S113047090E0A7D35EC046DF6B017C0120E83EEE2E
S113048046E350E0FED649015A01C701B60128EE01
S113049033E040E050E0F5D6CA01B90120E13EE086
S11304A040E050E0EED62CE330E040E050E0E9D606
S11304B029013A016B017C018901EB0160E080E0D4
S11304C018D383E990E07DD362E080E012D38AE020
S11304D0881691041CF489E990E073D3C401C4D351
S11304E08EE990E06ED30A3011051CF489E990E09E
S11304F068D3C201B9D38EE990E063D32A971CF480
S113050089E990E05ED3C601AFD313C060E080E018
S1130510F0D28BE990E055D362E080E0EAD280919A
S1130520F700811103C08FE690E002C08BE690E0F3
S113053048D3DF91CF911F910F91FF90EF90DF90FF
S1130540CF90BF90AF909F908F907F906F905F906F
S11305504F903F902F9008958093F700C49808958A
S1130560CF92DF92EF92FF926A017B019091A700F4
S113057091115FC0811160C081E08093A700409316
S1130580E6005093E7006093E8007093E90026C00A
S11305901092A7008091A200811119C08091E500FA
S11305A08823A9F08091E6009091E700A091E800EB
S11305B0B091E900A7019601281B390B4A0B5B0B8C
S11305C0223331054105510510F0D5DEE4DE1092E9
S11305D0A2008091A700811105C02EC08091A200C5
S11305E081112AC08091E6009091E700A091E80073
S11305F0B091E900C81AD90AEA0AFB0A34EFC31613
S113060031E0D306E104F104B8F081E08093A20064
S11306108091F800833039F49091F70081E08927C4
S11306209BDFB9DE09C09091E50081E089279FDE58
S113063003C08111ADCFD2CFFF90EF90DF90CF9068
S113064008958F929F92AF92BF92CF92DF92EF92D2
S1130650FF920F931F93CF93DF936B017C0120E0F4
S113066030E0A9013DD4882309F457C0E091C300C8
S113067081E08E0F8093C300F0E0EE0FFF1FEE0FBA
S1130680FF1FEB53FF4FC082D182E282F382883096
S113069009F043C01092C300C5ECD0E005EE10E0B1
S11306A060E070E0CB012991399149915991B4D31B
S11306B0C017D107C1F720E030E040E05EE363D526
S11306C04B015C01C090A300D090A400E090A50071
S11306D0F090A60020E030E0A901C701B60100D4E3
S11306E0811109C08092A3009092A400A092A50059
S11306F0B092A60012C0A7019601C501B4018CD323
S113070020E030E040E05FE33ED56093A3007093C7
S1130710A4008093A5009093A600DF91CF911F9130
S11307200F91FF90EF90DF90CF90BF90AF909F908C
S11307308F900895CF92DF92EF92FF922091C400A0
S1130740253009F06AC0C090A800D090A900E090BC
S1130750AA00F090AB00DC01CB018C199D09AE0915
S1130760BF09B695A79597958795B695A79597953B
S113077087959C01AD014427552760E67AEE80E019
S113078090E0A1D5283582E03807E8F53093B6002B
S11307902093B500B90162957295707F7627607FCA
S11307A07627621B730B660F771F660F771F80E037
S11307B090E033D42091B7003091B8004091B90053
S11307C05091BA00E0D46B017C016093EF00709308
S11307D0F0008093F1009093F2002091B1003091E9
S11307E0B2004091B3005091B400C9D4882344F0BE
S11307F0C092B100D092B200E092B300F092B40083
S1130800C701B6011EDF1092C4001092A800109216
S1130810A9001092AA001092AB00FF90EF90DF9015
S1130820CF90089580E886BD16BC17BABC9AC39AC7
S113083036DD7DDDB0DD2FEF30E742E02150304082
S11308404040E1F700C000003ED120E040E060E01D
S113085080E068D1A0DD81E08093E500D1E0C0E1D3
S113086051DD6B017C01B299F2C08091EE008111DF
S11308703FC0D093EE003CC01092EE00C092F30053
S1130880D092F400E092F500F092F6008091A80076
S11308909091A900A091AA00B091AB00892B8A2B5A
S11308A08B2B41F4C092A800D092A900E092AA0038
S11308B0F092AB008091C4008F5F8093C4002091BC
S11308C0B7003091B8004091B9005091BA006091DE
S11308D0BB007091BC008091BD009091BE009CD281
S11308E06093BB007093BC008093BD009093BE00E6
S11308F0C701B6011FDF86B3B701A601887030DED9
S11309008091F7008823F1F08091BF009091C0009E
S1130910A091C100B091C200A7019601281B390B18
S11309204A0B5B0B2A3F31054105510558F088B34A
S11309308C2788BBC092BF00D092C000E092C10057
S1130940F092C20020E030E0A9016091EF007091C4
S1130950F0008091F1009091F200C2D2882361F1FD
S11309608091F3009091F400A091F500B091F6000D
S1130970A7019601281B390B4A0B5B0BDA01C9014D
S1130980803A9F40A105B105B8F01092EF00109293
S1130990F0001092F1001092F2001092B600109242
S11309A0B5001092C4001092A8001092A9001092F1
S11309B0AA001092AB00EFDC8091F8008230B1F411
S11309C08091EA009091EB00A091EC00B091ED00D1
S11309D0A7019601281B390B4A0B5B0BDA01C901ED
S11309E0883E9340A105B10540F53ACF811138CF37
S11309F020E030E0A9016091EF007091F000809157
S1130A00F1009091F200BBD318160CF029CF80911D
S1130A10EA009091EB00A091EC00B091ED00A701E9
S1130A209601281B390B4A0B5B0BDA01C901803A8A
S1130A309F40A105B10508F413CFADDCC092EA00D4
S1130A40D092EB00E092EC00F092ED0009CF80919F
S1130A50EE00811111CF4CCFB89AB99AC19AC09ABD
S1130A60C098C1980895C198C098C19AC09AB8987E
S1130A70089520E030E090E0AC01022E02C0440F63
S1130A80551F0A94E2F747FF02C0C09A01C0C098FC
S1130A90C19AC1982F5F3F4F2830310569F7C09A3A
S1130AA0C19AC1980895D8DF88E7E3DF80E0E1DFE9
S1130AB00895D2DF88E7DDDF80E4DBDF0895D9DF46
S1130AC00895D1DF08950F931F93CF93DF93EBDF46
S1130AD0CEE1D0E00EE310E0FE018491CADF21965E
S1130AE0C017D107C9F7BFDFDF91CF911F910F91D5
S1130AF00895CF93DF93C82FD62F8093A1006093DE
S1130B00A000D1DF8D2F8770806BB3DF8C2F8F70A7
S1130B10B0DF8C2F82958F708061ABDFA4DFDF9113
S1130B20CF910895EF92FF920F931F93CF93DF938A
S1130B30E82EF62E042F122F60E080E0DADFB9DF12
S1130B40C0E0D1E08E2D95DF8F2D93DF802F91DFD4
S1130B50812F8FDF2197B1F786DFDF91CF911F912E
S1130B600F91FF90EF900895CF93C82F9CDFC11190
S1130B7002C08EEA01C08FEA7CDF75DFCF91089551
S1130B800F931F93CF93DF9390E08C01000F111FFD
S1130B90000F111F880F991F080F191F8ADFE80122
S1130BA0C258D0400C571040FE01849188DF219632
S1130BB0C017D107C9F785DFDF91CF911F910F913E
S1130BC00895CF93DF93EC0180916000813041F46C
S1130BD08881882329F02196D3DF89918111FCCF64
S1130BE0DF91CF910895CF92DF92EF92FF920F930E
S1130BF01F93CF93DF937B01EB01FB0120E030E0F7
S1130C000F2EFAE0CF2ED12CF02D01C098018901CE
S1130C100F5F1F4FB60122D3805D8193862F972FDC
S1130C20181619069CF3F701E00FF11F1082121633
S1130C3013068CF4A901F701E00FF11F80E090E0A6
S1130C40288132913993208301969A01281B390B0C
S1130C5082179307ACF3DF91CF911F910F91FF900F
S1130C60EF90DF90CF900895CF93DF9300D000D022
S1130C701F92CDB7DEB7883E23E0920738F4BE0159
S1130C806F5F7F4FB0DFCE0101969BDF0F900F9017
S1130C900F900F900F90DF91CF9108954F925F9234
S1130CA06F927F928F929F92AF92BF92CF92DF9278
S1130CB0EF92FF920F931F93CF93DF93CDB7DEB7DD
S1130CC02A970FB6F894DEBF0FBECDBF4B015C016F
S1130CD0642E752E890170D16B017C01B801C601A7
S1130CE082DFF8018081882341F0C80101968C01DC
S1130CF00196F80120812111FACF8EE2F801819347
S1130D008F018AE0E1E6F0E0DE01119601900D9298
S1130D108A95E1F7862D972D8530910514F084E0AE
S1130D2090E0880F991FFE01E80FF91F618172811D
S1130D30072E000C880B990B72D12B013C01B601D4
S1130D40DD0C880B990B6BD19B01AC01C501B4017F
S1130D5062D09B01AC01C301B20115D22DD19B011C
S1130D60772324F422273327261B370BB801C90124
S1130D703ADF2A960FB6F894DEBF0FBECDBFDF91DF
S1130D80CF911F910F91FF90EF90DF90CF90BF9084
S1130D90AF909F908F907F906F905F904F90089549
S1130DA0CF92DF92EF92FF920F931F93CF93DF9333
S1130DB0CDB7DEB72A970FB6F894DEBF0FBECDBF0E
S1130DC06B017C018A0120E030E0A90189D08823ED
S1130DD09CF020E030E04AE754E4C701B601CFD1EB
S1130DE0882354F49E012F5F3F4FA801C701B60129
S1130DF055DFCE010196E5DE2A960FB6F894DEBFE4
S1130E000FBECDBFDF91CF911F910F91FF90EF9057
S1130E10DF90CF9008955058BB27AA270ED075C1F4
S1130E2066D130F06BD120F031F49F3F11F41EF401
S1130E305BC10EF4E095E7FB51C1E92F77D180F354
S1130E40BA17620773078407950718F071F49EF5C3
S1130E508FC10EF4E0950B2EBA2FA02D0B01B90112
S1130E6090010C01CA01A0011124FF27591B99F01C
S1130E70593F50F4503E68F11A16F040A22F232F28
S1130E80342F4427585FF3CF469537952795A79578
S1130E90F0405395C9F77EF41F16BA0B620B730B1F
S1130EA0840BBAF09150A1F0FF0FBB1F661F771F90
S1130EB0881FC2F70EC0BA0F621F731F841F48F445
S1130EC0879577956795B795F7959E3F08F0B3CFCB
S1130ED09395880F08F09927EE0F979587950895B5
S1130EE0D9D008F481E008950CD00FC107D140F0A7
S1130EF0FED030F021F45F3F19F0F0C0511139C138
S1130F00F3C014D198F39923C9F35523B1F3951B76
S1130F10550BBB27AA2762177307840738F09F5F16
S1130F205F4F220F331F441FAA1FA9F333D00E2E85
S1130F303AF0E0E830D091505040E695001CCAF7F2
S1130F4029D0FE2F27D0660F771F881FBB1F2617B7
S1130F5037074807AB07B0E809F0BB0B802DBF018A
S1130F60FF2793585F4F2AF09E3F510568F0B6C0A3
S1130F7000C15F3FECF3983EDCF386957795679567
S1130F80B795F7959F5FC9F7880F911D969587953B
S1130F9097F90895E1E0660F771F881FBB1F62175A
S1130FA073078407BA0720F0621B730B840BBA0B18
S1130FB0EE1F88F7E095089504D06894B111D9C064
S1130FC00895BCD088F09F5790F0B92F9927B75156
S1130FD0A0F0D1F0660F771F881F991F1AF0BA95F9
S1130FE0C9F712C0B13081F0C3D0B1E00895C0C0D8
S1130FF0672F782F8827B85F39F0B93FCCF38695EF
S113100077956795B395D9F73EF49095809570954B
S113101061957F4F8F4F9F4F0895E89409C097FBC8
S11310203EF490958095709561957F4F8F4F9F4FBB
S11310309923A9F0F92F96E9BB279395F6958795FF
S113104077956795B795F111F8CFFAF4BB0F11F4C2
S113105060FF1BC06F5F7F4F8F4F9F4F16C0882369
S113106011F096E911C0772321F09EE8872F762F9F
S113107005C0662371F096E8862F70E060E02AF0E0
S11310809A95660F771F881FDAF7880F96958795CC
S113109097F90895990F0008550FAA0BE0E8FEEFA1
S11310A016161706E807F907C0F012161306E40728
S11310B0F50798F0621B730B840B950B39F40A2621
S11310C061F0232B242B252B21F408950A2609F4FF
S11310D0A140A6958FEF811D811D089597F99F6703
S11310E080E870E060E008959FEF80EC08950024AC
S11310F00A941616170618060906089500240A9479
S113110012161306140605060895092E0394000CFE
S113111011F4882352F0BB0F40F4BF2B11F460FF8D
S113112004C06F5F7F4F8F4F9F4F089557FD9058B6
S1131130440F551F59F05F3F71F04795880F97FB97
S1131140991F61F09F3F79F0879508951216130651
S11311501406551FF2CF4695F1DF08C01616170680
S11311601806991FF1CF86957105610508940895B5
S1131170E894BB2766277727CB0197F908958ADF80
S113118008F48FEF08950AD0C0CFB1DF28F0B6DF9E
S113119018F0952309F0A2CFA7CFEBCFC7DFA8F3B0
S11311A09923D9F35523C9F3950F50E0551FAA2766
S11311B0EE27FF27BB2700240894679520F4E20F4D
S11311C0F31FB41F0A1E220F331F441FAA1F669564
S11311D0A9F7779530F4F30FB41F0A1E121E08F412
S11311E06395330F441FAA1F221F769599F787959D
S11311F020F4B40F0A1E121E631F440FAA1F221FDD
S1131200331F8695A9F7862F712D602D11249F57C2
S113121050408AF0E1F088234AF0EE0FFF1FBB1F15
S1131220661F771F881F91505040A9F79E3F5105B4
S113123070F054CF9ECF5F3FECF3983EDCF386957D
S113124077956795B795F795E7959F5FC1F7FE2B5F
S1131250880F911D9695879597F9089597FB072E0A
S113126016F4009406D077FD08D049D007FC05D0C9
S11312703EF4909581959F4F0895709561957F4FA9
S11312800895A1E21A2EAA1BBB1BFD010DC0AA1FC3
S1131290BB1FEE1FFF1FA217B307E407F50720F0DB
S11312A0A21BB30BE40BF50B661F771F881F991F56
S11312B01A9469F760957095809590959B01AC019F
S11312C0BD01CF010895052E97FB16F400940FD0AD
S11312D057FD05D0D6DF07FC02D046F408C0509570
S11312E04095309521953F4F4F4F5F4F089590950E
S11312F08095709561957F4F8F4F9F4F0895AA1BDE
S1131300BB1B51E107C0AA1FBB1FA617B70710F0EC
S1131310A61BB70B881F991F5A95A9F7809590951E
S1131320BC01CD010895E199FECF9FBB8EBBE09A2D
S113133099278DB30895262FE199FECF1CBA9FBB40
S11313408EBB2DBB0FB6F894E29AE19A0FBE0196BC
S10913500895F894FFCF9C
S11313560100000A006400E80310276F6E20006F86
S1131366666600206B6D2F682020202000643A20DA
S113137600206B6D20202020006D733A20006173DD
S11313863A200074696D653A0030006C65643A0071
S9030000FC
