:1000000032C14CC156C1AEC249C148C147C146C147
:1000100045C144C16BC142C141C140C13FC10000A3
:10002000000000000000002F000000000700070093
:1000300000147F147F1400242A7F2A1200626408AF
:10004000132300364955225000000503000000002C
:100050001C224100000041221C000014083E08142C
:100060000008083E0808000000A06000000808081A
:100070000808000060600000002010080402003E34
:100080005149453E0000427F4000004261514946CF
:10009000002141454B31001814127F1000274545BF
:1000A0004539003C4A4949300001710905030036D1
:1000B0004949493600064949291E000036360000E4
:1000C00000005636000000081422410000141414E9
:1000D00014140000412214080002015109060032E4
:1000E0004959513E007C1211127C007F4949493622
:1000F000003E41414122007F4141221C007F49498D
:100100004941007F09090901003E4149497A007FC0
:100110000808087F0000417F4100002040413F0166
:10012000007F08142241007F40404040007F020CC5
:10013000027F007F0408107F003E4141413E007F66
:1001400009090906003E4151215E007F091929462F
:100150000046494949310001017F0101003F40400B
:10016000403F001F2040201F003F4038403F0063B9
:1001700014081463000708700807006151494543DB
:1001800000007F41410000552A552A550000414199
:100190007F00000402010204004040404040000093
:1001A00001020400002054545478007F484444382D
:1001B00000384444442000384444487F00385454B4
:1001C000541800087E0901020018A4A4A47C007F32
:1001D000080404780000447D4000004080847D00D5
:1001E000007F102844000000417F4000007C04187C
:1001F0000478007C0804047800384444443800FC47
:10020000242424180018242418FC007C0804040862
:1002100000485454542000043F444020003C4040D7
:10022000207C001C2040201C003C4030403C00440E
:1002300028102844001CA0A0A07C004464544C4416
:10024000141414141414AED5F0A83FD300408D1428
:100250002000A1C8DA12813FD922DB20A4A62EAF4C
:1002600022003F21007F11241FBECFE5D2E0DEBF78
:10027000CDBF10E0A0E6B0E0E2E8F2E102C00590F8
:100280000D92AA3EB107D9F721E0AAEEB0E001C075
:100290001D92A334B207E1F7E3D2F1C7B1CEF894CF
:1002A00085B7836085BF8BB780628BBFA99A78942E
:1002B00008951F920F920FB60F9211248F9381E031
:1002C0008093F4008F910F900FBE0F901F901895A0
:1002D000F8948AB582608ABD8DE789BD83B7836053
:1002E00083BF89B7806189BF789408951F920F9268
:1002F0000FB60F9211248F939F93AF93BF9380916A
:10030000F5009091F600A091F700B091F8000196E9
:10031000A11DB11D8093F5009093F600A093F70006
:10032000B093F800BF91AF919F918F910F900FBE46
:100330000F901F9018952FB7F8946091F500709169
:10034000F6008091F7009091F8002FBF08959FEF7D
:10035000980F9E3F20F4682F82E090E082D70895A6
:1003600082E090E076D78F3F19F481E4F0DF81E4FA
:10037000682F70E080E090E0F3D523EC35EF48E49F
:1003800050E4A2D620E030E543EC57E44ED560932C
:10039000FF00709300018093010190930201089582
:1003A00080932401CBD3089580913F018F5F8530E6
:1003B00019F080933F01089510923F01089520E0C5
:1003C00040E060E080E098D380913F01823009F402
:1003D0005BC028F4882351F0813079F1089583308F
:1003E00009F462C0843009F473C0089560E080E0CD
:1003F0006ED3409136015091370160913801709170
:10040000390121E030E087E091E020D487E091E0FD
:10041000CED360E180E05BD34091030150910401B1
:10042000609105017091060122E030E087E091E0E3
:100430000DD487E091E0BBD3089560E080E047D31E
:100440004091F9005091FA006091FB007091FC001E
:1004500021E030E087E091E0F9D387E091E0A7D395
:1004600060E180E034D34091EB005091EC0060916A
:10047000ED007091EE0021E030E087E091E0E6D3FE
:1004800087E091E094D3089560E080E020D34AE0D3
:1004900050E067E071E08091FD009091FE0095D3FF
:1004A00087E091E084D3089560E080E010D38BE88A
:1004B00090E07DD360E180E00AD380910E0181114C
:1004C00003C087E890E002C084E890E070D308950C
:1004D00060E080E0FCD285E990E069D360E180E0F3
:1004E000F6D280913E01811103C087E890E002C0FE
:1004F00084E890E05CD3089560910E0181E0682764
:1005000060930E0181E090E0ACD6089580E048DF72
:10051000C49885B7877E806185BFF89485B780626F
:1005200085BF85B7846885BF8B7F85BF78948895A4
:1005300085B78F7D85BF7894089580933E0110BE66
:100540001DBC19BE882369F0F89480B7806880BF0D
:1005500084EF8DBD80B78E6080BF89B7806489BF0E
:10056000789408951F920F920FB60F9211248F93D3
:100570009F9398B380E1892788BB9F918F910F90BB
:100580000FBE0F901F901895CF92DF92EF92FF92BF
:100590006A017B019091EF00911164C0811165C0E7
:1005A00081E08093EF0040932601509327016093F0
:1005B00028017093290113C01092EF008091EA0086
:1005C000811106C080912401882311F0EDDEF7DE51
:1005D0001092EA008091EF00811105C046C0809121
:1005E000EA00811142C08091260190912701A091DB
:1005F0002801B0912901A7019601281B390B4A0B4C
:100600005B0BDA01C901843F9140A105B10568F196
:1006100081E08093EA0080913F01833019F08430BB
:10062000A1F01AC090910E0181E0892765DFC7DE35
:1006300080910E018823C9F0C0923A01D0923B010B
:10064000E0923C01F0923D0110C090913E0181E0AA
:10065000892773DFB4DE09C09091240181E08927E6
:100660009FDE03C08111A8CFBACFFF90EF90DF903B
:10067000CF9008958F929F92AF92BF92CF92DF92C8
:10068000EF92FF920F931F93CF93DF936B017C0147
:1006900020E030E0A901C5D3882309F457C0E091D8
:1006A0000D0181E08E0F80930D01F0E0EE0FFF1F32
:1006B000EE0FFF1FE05FFE4FC082D182E282F38225
:1006C000853009F043C010920D01C0E1D1E004E291
:1006D00011E060E070E0CB01299139914991599185
:1006E0003CD3C017D107C1F720E030E040EA50E426
:1006F0009CD34B015C01C090EB00D090EC00E090EB
:10070000ED00F090EE0020E030E0A901C701B60155
:1007100088D3811109C08092EB009092EC00A092E6
:10072000ED00B092EE0012C0A7019601C501B40120
:1007300014D320E030E040E05FE3C6D46093EB00E8
:100740007093EC008093ED009093EE00DF91CF91D9
:100750001F910F91FF90EF90DF90CF90BF90AF90DF
:100760009F908F900895CF92DF92EF92FF92209109
:100770000F01253009F06FC0DC01CB01C090F00003
:10078000D090F100E090F200F090F300BC01CD01B8
:100790006C197D098E099F0925E030E040E050E0AA
:1007A00022D5CA01B901DAD39B01AC0160E070E641
:1007B0008AE697E43AD3A6D3683522E0720708F0B8
:1007C00040C07093FE006093FD009B01229532951E
:1007D000307F3227207F3227A901461B570BBA01F1
:1007E000660F771F660F771F80E090E0B7D32091E8
:1007F000FF0030910001409101015091020164D449
:100800006B017C016093360170933701809338014E
:10081000909339012091F9003091FA004091FB004A
:100820005091FC004DD4882344F0C092F900D0923E
:10083000FA00E092FB00F092FC00C701B6011ADF5B
:10084000BEDD10920F011092F0001092F100109294
:10085000F2001092F300FF90EF90DF90CF90089598
:1008600080E886BD16BC2FEF30E742E021503040D3
:100870004040E1F700C0000014D160E28EE190E05A
:1008800069D120E040E060E080E036D160E080E0C7
:100890001ED18AE990E08BD1C39ABC9A80B5826060
:1008A00080BDFDDC15DD81E08093240181E090E0D6
:1008B000D0D491E0811101C090E090930E0180E0CE
:1008C00090E0C7D491E0811101C090E090932A019B
:1008D00047DD75DD30DD6B017C018091F4008823FC
:1008E000E1F11092F400C0923A01D0923B01E09203
:1008F0003C01F0923D018091F0009091F100A091B7
:10090000F200B091F300892B8A2B8B2B41F4C0921B
:10091000F000D092F100E092F200F092F3008091AA
:100920000F018F5F80930F012091FF003091000134
:100930004091010150910201609103017091040105
:10094000809105019091060108D260930301709394
:100950000401809305019093060186B3B701A601B7
:10096000887012DEC701B601FEDE80913A019091D7
:100970003B01A0913C01B0913D01A7019601281BCC
:10098000390B4A0B5B0BDA01C901883B9B40A1057F
:10099000B10550F120E030E0A9016091360170917D
:1009A000370180913801909139013BD2811105C006
:1009B00080910F0181508430B8F41092360110926A
:1009C000370110923801109239011092FE001092F6
:1009D000FD0010920F011092F0001092F1001092A1
:1009E000F2001092F300EBDC80913A0190913B0110
:1009F000A0913C01B0913D01C81AD90AEA0AFB0A4C
:100A000040E2C4164EE4D406E104F10460F0109212
:100A10003A0110923B0110923C0110923D018091ED
:100A20000E01811173DD8FEC97E00197F1F700C0A3
:100A3000000050CFB89ABA9AC29AC09AC098C29889
:100A40000895C298C098C29AC09AB898089520E0B4
:100A500030E090E0AC01022E02C0440F551F0A9412
:100A6000E2F747FF02C0C09A01C0C098C29AC2987C
:100A70002F5F3F4F2830310569F7C09AC29AC2985C
:100A80000895D8DF88E7E3DF80E0E1DF0895D2DF73
:100A900088E7DDDF80E4DBDF0895D9DF0895D1DF6B
:100AA00008950F931F93CF93DF93EBDFC6E4D2E05B
:100AB00006E612E0FE018491CADF2196C017D10735
:100AC000C9F7BFDFDF91CF911F910F910895CF93A9
:100AD000DF93C82FD62FD5DF8D2F8770806BB7DFC0
:100AE0008C2F8F70B4DF8C2F82958F708061AFDF79
:100AF000A8DFDF91CF910895EF92FF920F931F939C
:100B0000CF93DF93E82EF62E042F122F60E080E0C3
:100B1000DEDFBDDFC0E0D1E08E2D99DF8F2D97DFC6
:100B2000802F95DF812F93DF2197B1F78ADFDF9147
:100B3000CF911F910F91FF90EF900895CF93C82F01
:100B4000A0DFC11102C08EEA01C08FEA80DF79DF29
:100B5000CF910895909342018093410160934001A9
:100B600008950F931F93CF93DF9390E08C01000FB4
:100B7000111F000F111F880F991F080F191FE8017F
:100B8000C05CD10984DF0A5B1109E0914101F09159
:100B90004201EC0FFD1F849180DF2196C017D10721
:100BA000A1F77DDFDF91CF911F910F910895CF9332
:100BB000DF93EC018881882329F02196D2DF899187
:100BC0008111FCCFDF91CF910895CF92DF92EF9208
:100BD000FF920F931F93CF93DF93EC017B016A0188
:100BE0008B0102C08D01E901CE01B601E9D29B0162
:100BF000D8011196C601D3D2FE01E81BF90BEF55BF
:100C0000FF4F83A1F80180832115310559F7DD23BA
:100C10001CF411968DE28183FD0131971C92EE1632
:100C2000FF0650F4D701E701808131979D919183B0
:100C30008993AE17BF07C0F3C701DF91CF911F9112
:100C40000F91FF90EF90DF90CF9008952F923F92F9
:100C50004F925F926F927F928F929F92AF92BF92CC
:100C6000CF92DF92EF92FF920F931F93CF93DF9378
:100C7000CDB7DEB7A4970FB6F894DEBF0FBECDBFD9
:100C80008C016A017B01390184E2E0E6F0E0DE01DB
:100C9000119601900D928A95E1F7CB01BA012DD101
:100CA0004B015C014AE050E0B801C4018EDFF8015D
:100CB0008081882341F0C8010196FC0101962081C2
:100CC0002111FBCF01C0F8018EE281931F01660C58
:100CD000771C660C771CFE01E60DF71D61817281A1
:100CE000838194813DD12B013C01C501B40138D1F0
:100CF0009B01AC01C701B6012FD09B01AC01C30120
:100D0000B201E2D1FAD0DC01CB01BB233CF4B095B7
:100D1000A095909581959F4FAF4FBF4F4AE050E00F
:100D2000B10153DFC801A4960FB6F894DEBF0FBE21
:100D3000CDBFDF91CF911F910F91FF90EF90DF908A
:100D4000CF90BF90AF909F908F907F906F905F906B
:100D50004F903F902F9008955058BB27AA270ED050
:100D600075C166D130F06BD120F031F49F3F11F4A2
:100D70001EF45BC10EF4E095E7FB51C1E92F77D17A
:100D800080F3BA17620773078407950718F071F4A8
:100D90009EF58FC10EF4E0950B2EBA2FA02D0B01FE
:100DA000B90190010C01CA01A0011124FF27591BB0
:100DB00099F0593F50F4503E68F11A16F040A22FB6
:100DC000232F342F4427585FF3CF46953795279527
:100DD000A795F0405395C9F77EF41F16BA0B620B26
:100DE000730B840BBAF09150A1F0FF0FBB1F661F6D
:100DF000771F881FC2F70EC0BA0F621F731F841FB0
:100E000048F4879577956795B795F7959E3F08F0D5
:100E1000B3CF9395880F08F09927EE0F9795879594
:100E20000895D9D008F481E008950CD00FC107D1FE
:100E300040F0FED030F021F45F3F19F0F0C05111C6
:100E400039C1F3C014D198F39923C9F35523B1F3F1
:100E5000951B550BBB27AA2762177307840738F029
:100E60009F5F5F4F220F331F441FAA1FA9F333D088
:100E70000E2E3AF0E0E830D091505040E695001C3C
:100E8000CAF729D0FE2F27D0660F771F881FBB1FF8
:100E9000261737074807AB07B0E809F0BB0B802DD2
:100EA000BF01FF2793585F4F2AF09E3F510568F01E
:100EB000B6C000C15F3FECF3983EDCF386957795B2
:100EC0006795B795F7959F5FC9F7880F911D969520
:100ED000879597F90895E1E0660F771F881FBB1F7C
:100EE000621773078407BA0720F0621B730B840B29
:100EF000BA0BEE1F88F7E095089504D06894B111FD
:100F0000D9C00895BCD088F09F5790F0B92F992789
:100F1000B751A0F0D1F0660F771F881F991F1AF004
:100F2000BA95C9F712C0B13081F0C3D0B1E00895CD
:100F3000C0C0672F782F8827B85F39F0B93FCCF34E
:100F4000869577956795B395D9F73EF490958095FA
:100F5000709561957F4F8F4F9F4F0895E89409C01A
:100F600097FB3EF490958095709561957F4F8F4FDC
:100F70009F4F9923A9F0F92F96E9BB279395F695F2
:100F8000879577956795B795F111F8CFFAF4BB0F70
:100F900011F460FF1BC06F5F7F4F8F4F9F4F16C0D4
:100FA000882311F096E911C0772321F09EE8872F5E
:100FB000762F05C0662371F096E8862F70E060E01A
:100FC0002AF09A95660F771F881FDAF7880F969593
:100FD000879597F90895990F0008550FAA0BE0E837
:100FE000FEEF16161706E807F907C0F012161306EB
:100FF000E407F50798F0621B730B840B950B39F42B
:101000000A2661F0232B242B252B21F408950A2690
:1010100009F4A140A6958FEF811D811D089597F9D0
:101020009F6780E870E060E008959FEF80EC08958E
:1010300000240A94161617061806090608950024B7
:101040000A9412161306140605060895092E039431
:10105000000C11F4882352F0BB0F40F4BF2B11F4A5
:1010600060FF04C06F5F7F4F8F4F9F4F089557FD04
:101070009058440F551F59F05F3F71F04795880F06
:1010800097FB991F61F09F3F79F08795089512169D
:1010900013061406551FF2CF4695F1DF08C0161649
:1010A00017061806991FF1CF8695710561050894FA
:1010B0000895E894BB2766277727CB0197F9089511
:1010C0008ADF08F48FEF08950AD0C0CFB1DF28F08F
:1010D000B6DF18F0952309F0A2CFA7CFEBCFC7DF7B
:1010E000A8F39923D9F35523C9F3950F50E0551F61
:1010F000AA27EE27FF27BB2700240894679520F432
:10110000E20FF31FB41F0A1E220F331F441FAA1F32
:101110006695A9F7779530F4F30FB41F0A1E121ED7
:1011200008F46395330F441FAA1F221F769599F781
:10113000879520F4B40F0A1E121E631F440FAA1FC6
:10114000221F331F8695A9F7862F712D602D11243C
:101150009F5750408AF0E1F088234AF0EE0FFF1FBE
:10116000BB1F661F771F881F91505040A9F79E3FF5
:10117000510570F054CF9ECF5F3FECF3983EDCF307
:10118000869577956795B795F795E7959F5FC1F732
:10119000FE2B880F911D9695879597F90895002449
:1011A000552704C0080E591F880F991F009729F072
:1011B00076956795B8F37105B9F7802D952F089549
:1011C00097FB072E16F4009406D077FD08D02DD09B
:1011D00007FC05D03EF4909581959F4F089570953A
:1011E00061957F4F0895A1E21A2EAA1BBB1BFD013A
:1011F0000DC0AA1FBB1FEE1FFF1FA217B307E407F6
:10120000F50720F0A21BB30BE40BF50B661F771F4D
:10121000881F991F1A9469F760957095809590952D
:101220009B01AC01BD01CF010895AA1BBB1B51E17D
:1012300007C0AA1FBB1FA617B70710F0A61BB70B46
:10124000881F991F5A95A9F780959095BC01CD01EB
:101250000895E199FECF9FBB8EBBE09A99278DB38D
:101260000895262FE199FECF1CBA9FBB8EBB2DBBE4
:101270000FB6F894E29AE19A0FBE01960895F89499
:02128000FFCF9E
:10128200000000000A00000064000000E803000003
:1012920010270000A086010040420F0080969800AF
:1012A20000E1F5056F6E006F66660070777220735D
:1012B2006176653A006C65643A0048656C6C6F2132
:1012C200007A797877767574737271706F6E6D6C5F
:1012D2006B6A696867666564636261393837363597
:1012E2003433323130313233343536373839616262
:1012F200636465666768696A6B6C6D6E6F70717244
:0A130200737475767778797A00002D
:00000001FF
