S00C000056656C6F2E7372656382
S113000016C330C32FC32EC32DC32CC32BC32AC383
S113001029C328C336C326C325C324C323C3AED5EB
S1130020F0A83FD300408D142000A1C8DA12813F0C
S1130030D922DB20A4A62EAF22003F21007F00009E
S113004000000000000000000000000000000000AC
S113005000F8000000000000003330000000001031
S11300600C06100C0600000000000000000040C058
S11300707840C0784000043F04043F04040000704A
S113008088FC08300000001820FF211E0000F00842
S1130090F000E018000000211C031E211E0000F0E7
S11300A00888700000001E2123241927211010162F
S11300B00E0000000000000000000000000000002E
S11300C000E01804020000000007182040000002AD
S11300D00418E00000000040201807000000404021
S11300E080F0804040000202010F01020200000083
S11300F000F0000000000101011F010101000000E7
S113010000000000000080B070000000000000004B
S113011000000000000000010101010101010000D4
S1130120000000000000003030000000000000006B
S1130130000080601804006018060100000000E060
S113014010080810E000000F102020100F0000100D
S113015010F8000000000020203F20200000007064
S1130160080808887000003028242221300000305C
S11301700888884830000018202020110E00000054
S1130180C02010F8000000070424243F240000F8D5
S11301900888880808000019212020110E0000E0BA
S11301A0108888180000000F112020110E0000385C
S11301B00808C83808000000003F00000000007074
S11301C0880808887000001C222121221C0000E0FD
S11301D010080810E0000000312222110F00000076
S11301E000C0C0000000000000303000000000002B
S11301F0008000000000000080600000000000009B
S11302008040201008000001020408102000404033
S11302104040404040000404040404040400000876
S1130220102040800000002010080402010000702B
S113023048080808F0000000003036010000C03013
S1130240C828E810E0000718272423140B00000036
S1130250C038E0000000203C23020227382008F8C0
S1130260888888700000203F202020110E00C030B4
S1130270080808083800071820202010080008F88B
S113028008080810E000203F202020100F0008F884
S11302908888E8081000203F20202320180008F850
S11302A08888E8081000203F200003000000C030C8
S11302B008080838000007182020221E020008F849
S11302C008000008F808203F210101213F20000810
S11302D008F8080800000020203F2020000000004B
S11302E00808F8080800C08080807F00000008F833
S11302F088C028180800203F20012638200008F86C
S1130300080000000000203F20202020300008F8D2
S1130310F800F8F80800203F003F003F200008F8EC
S113032030C00008F808203F200007183F00E01004
S113033008080810E0000F10202020100F0008F813
S113034008080808F000203F210101010000E01026
S113035008080810E0000F18242438504F0008F84B
S1130360888888887000203F2000030C30200070AB
S11303708808080838000038202121221C001808A9
S113038008F8080818000000203F2000000008F8C2
S113039008000008F808001F202020201F0008780B
S11303A0880000C83808000007380E010000F8086B
S11303B000F80008F800033C0700073C0300081895
S11303C068808068180820302C03032C30200838FB
S11303D0C800C83808000000203F200000001008B2
S11303E00808C838080020382621202018000000FA
S11303F000FE020202000000007F40404000000CAA
S113040030C000000000000000010638C0000002F7
S11304100202FE000000004040407F000000000097
S113042004020202040000000000000000000000BA
S113043000000000000080808080808080800002B6
S113044002040000000000000000000000000000A2
S11304508080808000000019242222223F2008F896
S1130460008080000000003F112020110E000000D9
S1130470008080800000000E112020201100000068
S113048000808088F800000E112020103F2000001A
S1130490808080800000001F22222222130000801E
S11304A080F0888888180020203F20200000000069
S11304B0808080808000006B94949493600008F89E
S11304C0008080800000203F210000203F20008029
S11304D09898000000000020203F20200000000029
S11304E000809898000000C08080807F000008F899
S11304F0000080808000203F24022D30200000086E
S113050008F8000000000020203F20200000808028
S1130510808080808000203F20003F20003F80803A
S1130520008080800000203F210000203F20000048
S1130530808080800000001F202020201F008080F9
S113054000808000000080FFA12020110E00000028
S1130550008080808000000E112020A0FF80808019
S113056080008080800020203F21200001000000C6
S1130570808080808000003324242424190000809B
S113058080E0808000000000001F202000008080A8
S1130590000000808000001F202020103F20808069
S11305A080000080808000010E30080601008080F9
S11305B00080008080800F300C030C300F0000801E
S11305C08000808080000020312E0E312000808049
S11305D080000080808080818E7018060100008079
S11305E08080808080000021302C22213000000097
S11305F00000807C020200000000003F4040000038
S11306000000FF00000000000000FF0000000002E6
S1130610027C800000000040403F00000000000613
S11306200101020204040000000000000000112483
S11306301FBECFE5D2E0DEBFCDBF10E0A0E6B0E044
S1130640E0EEF8E102C005900D92A23BB107D9F7A4
S113065021E0A2EBB0E001C01D92A331B207E1F7A3
S11306600CD33CC9CDCCF8948AB582608ABD82E8AB
S113067089BD83B7836083BF89B7806189BF78945C
S113068008951F920F920FB60F9211248F939F9388
S1130690AF93BF938091C3009091C400A091C50013
S11306A0B091C6000196A11DB11D8093C300909323
S11306B0C400A093C500B093C600BF91AF919F91B1
S11306C08F910F900FBE0F901F9018952FB7F8942D
S11306D06091C3007091C4008091C5009091C600E0
S11306E02FBF08959FEF980F9E3F20F4682F84E05A
S11306F090E0C4D8089584E090E0ABD88F3F19F41B
S113070080E4F0DF80E4682F70E080E090E01DD7A3
S113071023EC35EF48E450E4CCD720E030E543EC5B
S113072057E478D66093CD007093CE008093CF00C9
S11307309093D00008952091B6003091B700409175
S1130740B8005091B9006091040170910501809145
S1130750060190910701F6D5AB01BC014093040159
S11307605093050160930601709307011092B6003F
S11307701092B7001092B8001092B90080E090E097
S113078075D808958093FB004BD4089520E040E091
S113079060E080E023D4809112018F5F843019F0EF
S11307A08093120108951092120108958F929F92DE
S11307B0AF92BF92CF92DF92EF92FF92809112019B
S11307C0823009F46EC030F4882359F0813009F482
S11307D03FC0DCC0833009F489C0843009F4C3C04D
S11307E0D5C060E080E0E1D38FE890E068D4609108
S11307F0090170910A0180910B0190910C0141E073
S113080050E064D588E690E05AD462E080E0CDD32D
S113081081E790E054D46091D1007091D20080912E
S1130820D3009091D40042E050E050D585E790E0A9
S113083046D464E080E0B9D38CE790E040D4809162
S1130840CB009091CC00C9D48DE690E038D49EC002
S113085060E080E0AAD382E890E031D46091C700E0
S11308607091C8008091C9009091CA0041E050E0A5
S11308702DD587E890E023D462E080E096D38EE81B
S113088090E01DD46091BA007091BB008091BC00CF
S11308909091BD0041E050E019D587E890E00FD475
S11308A075C060E080E081D383E990E008D462E021
S11308B080E07BD360910401709105018091060171
S11308C09091070142E050E001D58CE990E0F7D324
S11308D08091B500882309F459C01092B50064E0F2
S11308E080E063D380EA90E0EAD350C0EFDE6B018E
S11308F07C0128EE33E040E050E059D7CA01B90149
S113090020E13EE040E050E052D74B015C0160E062
S113091080E04BD386EA90E0D2D362E080E045D316
S1130920C701B60120E83EEE46E350E040D762E05E
S113093070E0C90138D48AE990E0C1D3C501B4019B
S11309402CE330E040E050E032D76B017C0162E000
S113095070E0C90128D48AE990E0B1D362E070E084
S1130960C60121D413C060E080E01FD38CEA90E07C
S1130970A6D362E080E019D380911101811103C0F4
S113098084E690E002C080E690E099D3FF90EF9077
S1130990DF90CF90BF90AF909F908F9008958093F9
S11309A01101C4980895CF92DF92EF92FF926A01E9
S11309B07B019091BE00911167C0811168C081E0F4
S11309C08093BE004093FC005093FD006093FE00B2
S11309D07093FF0026C01092BE008091B400811174
S11309E019C08091FB008823A9F08091FC009091AC
S11309F0FD00A091FE00B091FF00A7019601281B05
S1130A00390B4A0B5B0B223331054105510510F0BC
S1130A10BDDECCDE1092B4008091BE00811105C011
S1130A2036C08091B400811132C08091FC00909155
S1130A30FD00A091FE00B091FF00C81AD90AEA0A8D
S1130A40FB0A34EFC31631E0D306E104F104F8F0F5
S1130A5081E08093B40080911201823049F08430A7
S1130A6069F49091110181E0892799DF9FDE0FC01D
S1130A7062DE81E08093B50099DE09C09091FB00AD
S1130A8081E089277FDE03C08111A5CFCACFFF9003
S1130A90EF90DF90CF9008958F929F92AF92BF9284
S1130AA0CF92DF92EF92FF920F931F93CF93DF9336
S1130AB06B017C0120E030E0A901A8D4882309F46B
S1130AC057C0E091D90081E08E0F8093D900F0E007
S1130AD0EE0FFF1FEE0FFF1FE552FF4FC082D182C2
S1130AE0E282F382883009F043C01092D900CBED42
S1130AF0D0E00BEF10E060E070E0CB012991399178
S1130B00499159911FD4C017D107C1F720E030E0B3
S1130B1040E05EE3CED54B015C01C090BA00D090BA
S1130B20BB00E090BC00F090BD0020E030E0A901E3
S1130B30C701B6016BD4811109C08092BA009092AA
S1130B40BB00A092BC00B092BD0012C0A7019601E8
S1130B50C501B401F7D320E030E040E05FE3A9D55C
S1130B606093BA007093BB008093BC009093BD0067
S1130B70DF91CF911F910F91FF90EF90DF90CF9075
S1130B80BF90AF909F908F900895CF92DF92EF9295
S1130B90FF922091DA00253009F06AC0C090BF00AE
S1130BA0D090C000E090C100F090C200DC01CB0105
S1130BB08C199D09AE09BF09B695A7959795879598
S1130BC0B695A795979587959C01AD014427552720
S1130BD060E67AEE80E090E00CD6283582E03807B3
S1130BE0E8F53093CC002093CB00B901629572955F
S1130BF0707F7627607F7627621B730B660F771FE3
S1130C00660F771F80E090E09ED42091CD00309154
S1130C10CE004091CF005091D0004BD56B017C01A8
S1130C206093090170930A0180930B0190930C0166
S1130C302091C7003091C8004091C9005091CA006A
S1130C4034D5882344F0C092C700D092C800E09203
S1130C50C900F092CA00C701B6011EDF1092DA0083
S1130C601092BF001092C0001092C1001092C200F6
S1130C70FF90EF90DF90CF90089580E886BD16BC7A
S1130C8017BABC9AC39AEFDC36DD80E090E0E9D570
S1130C90609304017093050180930601909307010A
S1130CA02FEF30E742E0215030404040E1F700C0F0
S1130CB0000065D120E040E060E080E08FD176DD87
S1130CC081E08093FB00D1E0C0E100DD6B017C0199
S1130CD0B29913C18091080181115CC0D0930801BD
S1130CE059C010920801C0920D01D0920E01E092F9
S1130CF00F01F09210018091BF009091C000A0916B
S1130D00C100B091C200892B8A2B8B2B41F4C09275
S1130D10BF00D092C000E092C100F092C200809166
S1130D20DA008F5F8093DA008090CD009090CE003F
S1130D30A090CF00B090D000A50194016091D100A3
S1130D407091D2008091D3009091D400FBD2609333
S1130D50D1007093D2008093D3009093D40020915B
S1130D60B6003091B7004091B8005091B900C50168
S1130D70B401E8D26093B6007093B7008093B800D2
S1130D809093B90020E030E040E85FE38ED48823FC
S1130D900CF0D1DCC701B601F8DE86B3B701A601B9
S1130DA0887001DE809111018823F1F08091D500D3
S1130DB09091D600A091D700B091D800A7019601D8
S1130DC0281B390B4A0B5B0B2A3F310541055105A2
S1130DD058F088B38C2788BBC092D500D092D60037
S1130DE0E092D700F092D80020E030E0A9016091B1
S1130DF0090170910A0180910B0190910C0106D3B5
S1130E00882381F180910D0190910E01A0910F0131
S1130E10B0911001A7019601281B390B4A0B5B0BFB
S1130E20DA01C901803A9F40A105B105D8F01092BA
S1130E30090110920A0110920B0110920C011092F8
S1130E40CC001092CB001092DA001092BF001092E6
S1130E50C0001092C1001092C20080911201811151
S1130E6051C0A4DC809112018330B1F4809100015F
S1130E7090910101A0910201B0910301A701960193
S1130E80281B390B4A0B5B0BDA01C901883E9340DE
S1130E90A105B10540F519CF811117CF20E030E04D
S1130EA0A9016091090170910A0180910B0190914F
S1130EB00C01FBD318160CF008CF8091000190911F
S1130EC00101A0910201B0910301A7019601281B21
S1130ED0390B4A0B5B0BDA01C901803A9F40A1052B
S1130EE0B10508F4F2CE62DCC0920001D092010197
S1130EF0E0920201F0920301E8CE80910801811191
S1130F00F0CE48CF80911201833009F0DECEAECF0F
S1130F10B89AB99AC19AC09AC098C1980895C198CC
S1130F20C098C19AC09AB898089520E030E090E043
S1130F30AC01022E02C0440F551F0A94E2F747FF8A
S1130F4002C0C09A01C0C098C19AC1982F5F3F4F98
S1130F502830310569F7C09AC19AC1980895D8DF3D
S1130F6088E7E3DF80E0E1DF0895D2DF88E7DDDFB3
S1130F7080E4DBDF0895D9DF0895D1DF08950F936E
S1130F801F93CF93DF93EBDFCEE1D0E00EE310E0CD
S1130F90FE018491CADF2196C017D107C9F7BFDFCC
S1130FA0DF91CF911F910F910895CF93DF93C82FB5
S1130FB0D62F8093B3006093B200D1DF8D2F87705A
S1130FC0806BB3DF8C2F8F70B0DF8C2F82958F7086
S1130FD08061ABDFA4DFDF91CF910895EF92FF92A0
S1130FE00F931F93CF93DF93E82EF62E042F122F27
S1130FF060E080E0DADFB9DFC0E0D1E08E2D95DF7C
S11310008F2D93DF802F91DF812F8FDF2197B1F711
S113101086DFDF91CF911F910F91FF90EF9008959C
S1131020CF93C82F9CDFC11102C08EEA01C08FEAA2
S11310307CDF75DFCF910895CF92DF92EF92FF921C
S11310400F931F93CF93DF93C62ED42E082F10E057
S1131050005211097801EE0CFF1CEE0CFF1CEE0C83
S1131060FF1CEE0CFF1C642F8C2D9FDF7EDF87019D
S1131070025C1F4FE701CA5BDF4FF80184917BDFFD
S11310800F5F1F4F0C171D07C1F777DF61E06D0D70
S11310908C2D8BDF6ADF8701025B1F4FFE01849179
S11310A06ADF2196C017D107C9F767DFDF91CF91B7
S11310B01F910F91FF90EF90DF90CF9008950F93C1
S11310C01F93CF93DF93FC01C091B300D091B20082
S11310D08081882361F08F010F5F1F4F4D2F6C2F8C
S11310E0ABDFC85FF80181918F018111F7CF6D2FBC
S11310F08C2F5BDFDF91CF911F910F910895CF92D9
S1131100DF92EF92FF920F931F93CF93DF937B01B4
S1131110FA01992334F42DE2208391958195910964
S113112031968F01EF0120E030E00F2EFAE0CF2E50
S1131130D12CF02D2F5F3F4FB60126D3805D8993CC
S1131140862F972F18161906ACF32E153F0564F455
S1131150DF01A20FB31F9F012E0D3F1D80E38D936E
S1131160A217B307E1F701C07901EE0DFF1D10824C
S1131170E70121971C161D066CF480E090E0D8016D
S11311802C9132913D938D012083019621978C17E8
S11311909D07ACF3DF91CF911F910F91FF90EF90DA
S11311A0DF90CF900895CF93DF9300D000D01F92AB
S11311B0CDB7DEB7883E23E0920738F4AE014F5F27
S11311C05F4F9DDFCE0101967ADF0F900F900F9055
S11311D00F900F90DF91CF91089560E070E0E3DF0E
S11311E008954F925F926F927F92AF92BF92CF9287
S11311F0DF92EF92FF920F931F93CF93DF936B01D4
S11312007C015A01E90120E030E0A901FFD08823E4
S11312103CF48DE28883F7FAF094F7F8F094219681
S1131220C701B6015FD12B013C01072E000C880BCE
S1131230990B8BD19B01AC01C701B60182D06B0124
S11312407C01AE0160E070E0C20159DF888188232F
S113125039F0CE010196EC01019628812111FBCFD2
S11312608E010F5F1F4F8EE288831A141B047CF4D7
S1131270C50161E070E09B01220F331F220F331F71
S1131280620F731F660F771F0197A9F702C061E011
S113129070E0072E000C880B990B57D1A70196011B
S11312A008D220D1DC01CB01A801B50128DFDF91F0
S11312B0CF911F910F91FF90EF90DF90CF90BF904F
S11312C0AF907F906F905F904F900895CF92DF9290
S11312D0EF92FF920F931F93CF93DF93CDB7DEB7B7
S11312E02A970FB6F894DEBF0FBECDBF6B017C0109
S11312F08A0120E030E0A90189D088239CF020E015
S113130030E04AE754E4C701B601CFD1882354F44E
S11313109E012F5F3F4FA801C701B60162DFCE01D6
S11313200196CDDE2A960FB6F894DEBF0FBECDBF70
S1131330DF91CF911F910F91FF90EF90DF90CF90AD
S113134008955058BB27AA270ED075C166D130F036
S11313506BD120F031F49F3F11F41EF45BC10EF405
S1131360E095E7FB51C1E92F77D180F3BA17620703
S113137073078407950718F071F49EF58FC10EF476
S1131380E0950B2EBA2FA02D0B01B90190010C0191
S1131390CA01A0011124FF27591B99F0593F50F4A9
S11313A0503E68F11A16F040A22F232F342F442701
S11313B0585FF3CF469537952795A795F0405395F9
S11313C0C9F77EF41F16BA0B620B730B840BBAF0C9
S11313D09150A1F0FF0FBB1F661F771F881FC2F734
S11313E00EC0BA0F621F731F841F48F48795779548
S11313F06795B795F7959E3F08F0B3CF9395880FFF
S113140008F09927EE0F979587950895D9D008F499
S113141081E008950CD00FC107D140F0FED030F028
S113142021F45F3F19F0F0C0511139C1F3C014D158
S113143098F39923C9F35523B1F3951B550BBB2797
S1131440AA2762177307840738F09F5F5F4F220F44
S1131450331F441FAA1FA9F333D00E2E3AF0E0E83D
S113146030D091505040E695001CCAF729D0FE2F89
S113147027D0660F771F881FBB1F2617370748071B
S1131480AB07B0E809F0BB0B802DBF01FF279358D1
S11314905F4F2AF09E3F510568F0B6C000C15F3F20
S11314A0ECF3983EDCF3869577956795B795F795B9
S11314B09F5FC9F7880F911D9695879597F90895B1
S11314C0E1E0660F771F881FBB1F6217730784074D
S11314D0BA0720F0621B730B840BBA0BEE1F88F75C
S11314E0E095089504D06894B111D9C00895BCD092
S11314F088F09F5790F0B92F9927B751A0F0D1F0F9
S1131500660F771F881F991F1AF0BA95C9F712C082
S1131510B13081F0C3D0B1E00895C0C0672F782FF7
S11315208827B85F39F0B93FCCF3869577956795EE
S1131530B395D9F73EF490958095709561957F4F5A
S11315408F4F9F4F0895E89409C097FB3EF4909500
S11315508095709561957F4F8F4F9F4F9923A9F088
S1131560F92F96E9BB279395F69587957795679517
S1131570B795F111F8CFFAF4BB0F11F460FF1BC05B
S11315806F5F7F4F8F4F9F4F16C0882311F096E9EE
S113159011C0772321F09EE8872F762F05C066239C
S11315A071F096E8862F70E060E02AF09A95660F55
S11315B0771F881FDAF7880F9695879597F908950E
S11315C0990F0008550FAA0BE0E8FEEF1616170650
S11315D0E807F907C0F012161306E407F50798F0B8
S11315E0621B730B840B950B39F40A2661F0232BD1
S11315F0242B252B21F408950A2609F4A140A6954D
S11316008FEF811D811D089597F99F6780E870E031
S113161060E008959FEF80EC089500240A94161664
S1131620170618060906089500240A9412161306CC
S1131630140605060895092E0394000C11F488235A
S113164052F0BB0F40F4BF2B11F460FF04C06F5F76
S11316507F4F8F4F9F4F089557FD9058440F551F4C
S113166059F05F3F71F04795880F97FB991F61F020
S11316709F3F79F087950895121613061406551F97
S1131680F2CF4695F1DF08C0161617061806991F03
S1131690F1CF86957105610508940895E894BB27F8
S11316A066277727CB0197F908958ADF08F48FEF2F
S11316B008950AD0C0CFB1DF28F0B6DF18F0952323
S11316C009F0A2CFA7CFEBCFC7DFA8F39923D9F3B3
S11316D05523C9F3950F50E0551FAA27EE27FF277E
S11316E0BB2700240894679520F4E20FF31FB41F6E
S11316F00A1E220F331F441FAA1F6695A9F7779568
S113170030F4F30FB41F0A1E121E08F46395330F4E
S1131710441FAA1F221F769599F7879520F4B40FCA
S11317200A1E121E631F440FAA1F221F331F869511
S1131730A9F7862F712D602D11249F5750408AF0F0
S1131740E1F088234AF0EE0FFF1FBB1F661F771FCF
S1131750881F91505040A9F79E3F510570F054CF17
S11317609ECF5F3FECF3983EDCF3869577956795C3
S1131770B795F795E7959F5FC1F7FE2B880F911DED
S11317809695879597F9089597FB072E16F400947C
S113179006D077FD08D049D007FC05D03EF49095DB
S11317A081959F4F0895709561957F4F0895A1E2AB
S11317B01A2EAA1BBB1BFD010DC0AA1FBB1FEE1FC7
S11317C0FF1FA217B307E407F50720F0A21BB30B12
S11317D0E40BF50B661F771F881F991F1A9469F78E
S11317E060957095809590959B01AC01BD01CF01EA
S11317F00895052E97FB16F400940FD057FD05D0DD
S1131800D6DF07FC02D046F408C0509540953095C9
S113181021953F4F4F4F5F4F089590958095709558
S113182061957F4F8F4F9F4F0895AA1BBB1B51E1BA
S113183007C0AA1FBB1FA617B70710F0A61BB70B3C
S1131840881F991F5A95A9F780959095BC01CD01E1
S11318500895E199FECF9FBB8EBBE09A99278DB383
S11318600895A6E1B0E044E050E018C00396272FA5
S113187024D022D0252F21D0242F1FC0262FE19938
S1131880FECF1CBA9FBB8EBB2DBB0FB6F894E29A59
S1131890E19A0FBE01960895DC01CB01FC01E199A8
S11318A0FECF06C0FFBBEEBBE09A31960DB20D929F
S11318B041505040B8F70895262FE199FECF9FBBC1
S11318C08EBBE09A01970DB2021639F01CBA2DBBFB
S11318D00FB6F894E29AE19A0FBE0895F894FFCFF8
S11318E06F6E20006F666600206B6D2F68202020CD
S11318F000643A2000206B6D2020200072706D3A45
S113190020006D733A2000206B6D2F6820006173F6
S11319103A2000746F74616C20643A00206B6D008F
S113192073617665640074696D653A006C65643A48
S10519300000B1
S9030000FC
