:1000000016C330C32FC32EC32DC32CC32BC32AC387
:1000100029C328C336C326C325C324C323C3AED5EF
:10002000F0A83FD300408D142000A1C8DA12813F10
:10003000D922DB20A4A62EAF22003F21007F0000A2
:1000400000000000000000000000000000000000B0
:1000500000F8000000000000003330000000001035
:100060000C06100C0600000000000000000040C05C
:100070007840C0784000043F04043F04040000704E
:1000800088FC08300000001820FF211E0000F00846
:10009000F000E018000000211C031E211E0000F0EB
:1000A0000888700000001E21232419272110101633
:1000B0000E00000000000000000000000000000032
:1000C00000E01804020000000007182040000002B1
:1000D0000418E00000000040201807000000404025
:1000E00080F0804040000202010F01020200000087
:1000F00000F0000000000101011F010101000000EB
:1001000000000000000080B070000000000000004F
:1001100000000000000000010101010101010000D8
:10012000000000000000003030000000000000006F
:10013000000080601804006018060100000000E064
:1001400010080810E000000F102020100F00001011
:1001500010F8000000000020203F20200000007068
:100160000808088870000030282422213000003060
:100170000888884830000018202020110E00000058
:10018000C02010F8000000070424243F240000F8D9
:100190000888880808000019212020110E0000E0BE
:1001A000108888180000000F112020110E00003860
:1001B0000808C83808000000003F00000000007078
:1001C000880808887000001C222121221C0000E001
:1001D00010080810E0000000312222110F0000007A
:1001E00000C0C0000000000000303000000000002F
:1001F000008000000000000080600000000000009F
:100200008040201008000001020408102000404037
:10021000404040404000040404040404040000087A
:10022000102040800000002010080402010000702F
:1002300048080808F0000000003036010000C03017
:10024000C828E810E0000718272423140B0000003A
:10025000C038E0000000203C23020227382008F8C4
:10026000888888700000203F202020110E00C030B8
:10027000080808083800071820202010080008F88F
:1002800008080810E000203F202020100F0008F888
:100290008888E8081000203F20202320180008F854
:1002A0008888E8081000203F200003000000C030CC
:1002B00008080838000007182020221E020008F84D
:1002C00008000008F808203F210101213F20000814
:1002D00008F8080800000020203F2020000000004F
:1002E0000808F8080800C08080807F00000008F837
:1002F00088C028180800203F20012638200008F870
:10030000080000000000203F20202020300008F8D6
:10031000F800F8F80800203F003F003F200008F8F0
:1003200030C00008F808203F200007183F00E01008
:1003300008080810E0000F10202020100F0008F817
:1003400008080808F000203F210101010000E0102A
:1003500008080810E0000F18242438504F0008F84F
:10036000888888887000203F2000030C30200070AF
:100370008808080838000038202121221C001808AD
:1003800008F8080818000000203F2000000008F8C6
:1003900008000008F808001F202020201F0008780F
:1003A000880000C83808000007380E010000F8086F
:1003B00000F80008F800033C0700073C0300081899
:1003C00068808068180820302C03032C30200838FF
:1003D000C800C83808000000203F200000001008B6
:1003E0000808C838080020382621202018000000FE
:1003F00000FE020202000000007F40404000000CAE
:1004000030C000000000000000010638C0000002FB
:100410000202FE000000004040407F00000000009B
:1004200004020202040000000000000000000000BE
:1004300000000000000080808080808080800002BA
:1004400002040000000000000000000000000000A6
:100450008080808000000019242222223F2008F89A
:10046000008080000000003F112020110E000000DD
:10047000008080800000000E11202020110000006C
:1004800000808088F800000E112020103F2000001E
:10049000808080800000001F222222221300008022
:1004A00080F0888888180020203F2020000000006D
:1004B000808080808000006B94949493600008F8A2
:1004C000008080800000203F210000203F2000802D
:1004D0009898000000000020203F2020000000002D
:1004E00000809898000000C08080807F000008F89D
:1004F000000080808000203F24022D302000000872
:1005000008F8000000000020203F2020000080802C
:10051000808080808000203F20003F20003F80803E
:10052000008080800000203F210000203F2000004C
:10053000808080800000001F202020201F008080FD
:1005400000808000000080FFA12020110E0000002C
:10055000008080808000000E112020A0FF8080801D
:1005600080008080800020203F21200001000000CA
:10057000808080808000003324242424190000809F
:1005800080E0808000000000001F202000008080AC
:10059000000000808000001F202020103F2080806D
:1005A00080000080808000010E30080601008080FD
:1005B0000080008080800F300C030C300F00008022
:1005C0008000808080000020312E0E31200080804D
:1005D00080000080808080818E701806010000807D
:1005E0008080808080000021302C2221300000009B
:1005F0000000807C020200000000003F404000003C
:100600000000FF00000000000000FF0000000002EA
:10061000027C800000000040403F00000000000617
:100620000101020204040000000000000000112487
:100630001FBECFE5D2E0DEBFCDBF10E0A0E6B0E048
:10064000E0E8F7E102C005900D92AE39B107D9F7A5
:1006500020E0AEE9B0E001C01D92A73FB207E1F78C
:10066000B2D28CC8CDCCF8948AB582608ABD82E8BB
:1006700089BD83B7836083BF89B7806189BF789460
:1006800008951F920F920FB60F9211248F939F938C
:10069000AF93BF938091AA009091AB00A091AC0062
:1006A000B091AD000196A11DB11D8093AA00909359
:1006B000AB00A093AC00B093AD00BF91AF919F9100
:1006C0008F910F900FBE0F901F9018952FB7F89431
:1006D0006091AA007091AB008091AC009091AD0048
:1006E0002FBF08959FEF980F9E3F20F4682F80E062
:1006F00090E036D8089580E090E02AD88F3F19F432
:1007000080E4F0DF80E4682F70E080E090E09CD629
:1007100023EC35EF48E450E44BD720E030E543ECE0
:1007200057E4F7D56093B5007093B6008093B70097
:100730009093B80008958093E300F1D3089520E0EA
:1007400040E060E080E0C9D38091F6008F5F8430A4
:1007500019F08093F60008951092F60008958F9294
:100760009F92AF92BF92CF92DF92EF92FF928091D1
:10077000F600813009F43FC038F0823009F464C0DB
:10078000833009F49EC0B0C060E080E08DD38FE874
:1007900090E014D46091ED007091EE008091EF0034
:1007A0009091F00041E050E010D588E690E006D44A
:1007B00062E080E079D381E790E000D46091B900F5
:1007C0007091BA008091BB009091BC0042E050E073
:1007D000FCD485E790E0F2D364E080E065D38CE759
:1007E00090E0ECD38091B3009091B40075D48DE685
:1007F00090E0E4D379C060E080E056D382E890E0F6
:10080000DDD36091AF007091B0008091B100909104
:10081000B20041E050E0D9D487E890E0CFD362E065
:1008200080E042D38EE890E0C9D36091A10070913E
:10083000A2008091A3009091A40041E050E0C5D4B3
:1008400087E890E0BBD350C041DF6B017C0128EE0C
:1008500033E040E050E02AD7CA01B90120E13EE090
:1008600040E050E023D74B015C0160E080E01CD306
:1008700083E990E0A3D362E080E016D3C701B6011C
:1008800020E83EEE46E350E011D762E070E0C90197
:1008900009D48CE990E092D3C501B4012CE330E097
:1008A00040E050E003D76B017C0162E070E0C901D9
:1008B000F9D38CE990E082D362E070E0C601F2D314
:1008C00013C060E080E0F0D289E990E077D362E085
:1008D00080E0EAD28091F500811103C084E690E0C7
:1008E00002C080E690E06AD3FF90EF90DF90CF9057
:1008F000BF90AF909F908F9008958093F500C4981B
:100900000895CF92DF92EF92FF926A017B0190915E
:10091000A50091115FC0811160C081E08093A500A6
:100920004093E4005093E5006093E6007093E70085
:1009300026C01092A5008091A000811119C080915D
:10094000E3008823A9F08091E4009091E500A09154
:10095000E600B091E700A7019601281B390B4A0B6E
:100960005B0B223331054105510510F0E8DEF7DE5F
:100970001092A0008091A500811105C02EC0809129
:10098000A00081112AC08091E4009091E500A0911F
:10099000E600B091E700C81AD90AEA0AFB0A34EF68
:1009A000C31631E0D306E104F104B8F081E080938E
:1009B000A0008091F600833039F49091F50081E039
:1009C00089279BDFCCDE09C09091E30081E0892775
:1009D000B2DE03C08111ADCFD2CFFF90EF90DF9098
:1009E000CF9008958F929F92AF92BF92CF92DF9255
:1009F000EF92FF920F931F93CF93DF936B017C01D4
:100A000020E030E0A90181D4882309F457C0E091A7
:100A1000C10081E08E0F8093C100F0E0EE0FFF1F58
:100A2000EE0FFF1FED53FF4FC082D182E282F382AF
:100A3000883009F043C01092C100C3ECD0E003EE4F
:100A400010E060E070E0CB01299139914991599112
:100A5000F8D3C017D107C1F720E030E040E05EE3F3
:100A6000A7D54B015C01C090A100D090A200E090FE
:100A7000A300F090A40020E030E0A901C701B60176
:100A800044D4811109C08092A1009092A200A0924A
:100A9000A300B092A40012C0A7019601C501B40141
:100AA000D0D320E030E040E05FE382D56093A10046
:100AB0007093A2008093A3009093A400DF91CF9144
:100AC0001F910F91FF90EF90DF90CF90BF90AF906C
:100AD0009F908F900895CF92DF92EF92FF92209196
:100AE000C200253009F06AC0C090A600D090A700CF
:100AF000E090A800F090A900DC01CB018C199D09C1
:100B0000AE09BF09B695A79597958795B695A79510
:100B1000979587959C01AD014427552760E67AEEAD
:100B200080E090E0E5D5283582E03807E8F530939D
:100B3000B4002093B300B90162957295707F762757
:100B4000607F7627621B730B660F771F660F771F18
:100B500080E090E077D42091B5003091B6004091CC
:100B6000B7005091B80024D56B017C016093ED0073
:100B70007093EE008093EF009093F0002091AF000F
:100B80003091B0004091B1005091B2000DD5882352
:100B900044F0C092AF00D092B000E092B100F09269
:100BA000B200C701B6011EDF1092C2001092A6006B
:100BB0001092A7001092A8001092A900FF90EF9049
:100BC000DF90CF90089580E886BD16BC17BABC9A16
:100BD000C39A49DD90DDC3DD2FEF30E742E02150BD
:100BE00030404040E1F700C0000048D120E040E044
:100BF00060E080E072D1B3DD81E08093E300D1E07A
:100C0000C0E164DD6B017C01B299F6C08091EC001B
:100C100081113FC0D093EC003CC01092EC00C09218
:100C2000F100D092F200E092F300F092F400809193
:100C3000A6009091A700A091A800B091A900892BCF
:100C40008A2B8B2B41F4C092A600D092A700E09291
:100C5000A800F092A9008091C2008F5F8093C2002B
:100C60002091B5003091B6004091B7005091B80086
:100C70006091B9007091BA008091BB009091BC0066
:100C8000E0D26093B9007093BA008093BB00909358
:100C9000BC00C701B6011FDF86B3B701A60188708B
:100CA00030DE8091F5008823F1F08091BD009091B5
:100CB000BE00A091BF00B091C000A7019601281B03
:100CC000390B4A0B5B0B2A3F31054105510558F0A2
:100CD00088B38C2788BBC092BD00D092BE00E09242
:100CE000BF00F092C00020E030E0A9016091ED006B
:100CF0007091EE008091EF009091F00006D3882370
:100D000081F18091F1009091F200A091F300B091F7
:100D1000F400A7019601281B390B4A0B5B0BDA0183
:100D2000C901803A9F40A105B105D8F01092ED00AD
:100D30001092EE001092EF001092F0001092B400AA
:100D40001092B3001092C2001092A6001092A70059
:100D50001092A8001092A9008091F600811151C054
:100D6000FEDC8091F6008230B1F48091E800909131
:100D7000E900A091EA00B091EB00A7019601281BC1
:100D8000390B4A0B5B0BDA01C901883E9340A10580
:100D9000B10540F536CF811134CF20E030E0A90114
:100DA0006091ED007091EE008091EF009091F00065
:100DB000FBD318160CF025CF8091E8009091E90044
:100DC000A091EA00B091EB00A7019601281B390B16
:100DD0004A0B5B0BDA01C901803A9F40A105B105BE
:100DE00008F40FCFBCDCC092E800D092E900E0929A
:100DF000EA00F092EB0005CF8091EC0081110DCF5D
:100E000048CF8091F600823009F0FBCEAECFB89A81
:100E1000B99AC19AC09AC098C1980895C198C098CB
:100E2000C19AC09AB898089520E030E090E0AC01F3
:100E3000022E02C0440F551F0A94E2F747FF02C07A
:100E4000C09A01C0C098C19AC1982F5F3F4F283007
:100E5000310569F7C09AC19AC1980895D8DF88E72B
:100E6000E3DF80E0E1DF0895D2DF88E7DDDF80E4C3
:100E7000DBDF0895D9DF0895D1DF08950F931F9325
:100E8000CF93DF93EBDFCEE1D0E00EE310E0FE0185
:100E90008491CADF2196C017D107C9F7BFDFDF9160
:100EA000CF911F910F910895CF93DF93C82FD62F25
:100EB00080939F0060939E00D1DF8D2F8770806BA1
:100EC000B3DF8C2F8F70B0DF8C2F82958F70806195
:100ED000ABDFA4DFDF91CF910895EF92FF920F93E4
:100EE0001F93CF93DF93E82EF62E042F122F60E08E
:100EF00080E0DADFB9DFC0E0D1E08E2D95DF8F2D05
:100F000093DF802F91DF812F8FDF2197B1F786DF6D
:100F1000DF91CF911F910F91FF90EF900895CF93A4
:100F2000C82F9CDFC11102C08EEA01C08FEA7CDFAE
:100F300075DFCF910895CF92DF92EF92FF920F93DA
:100F40001F93CF93DF93C62ED42E082F10E00052AC
:100F500011097801EE0CFF1CEE0CFF1CEE0CFF1CBF
:100F6000EE0CFF1C642F8C2D9FDF7EDF8701025C5F
:100F70001F4FE701CA5BDF4FF80184917BDF0F5FF2
:100F80001F4F0C171D07C1F777DF61E06D0D8C2D2A
:100F90008BDF6ADF8701025B1F4FFE0184916ADFEE
:100FA0002196C017D107C9F767DFDF91CF911F9155
:100FB0000F91FF90EF90DF90CF9008950F931F93C4
:100FC000CF93DF93FC01C0919F00D0919E00808160
:100FD000882361F08F010F5F1F4F4D2F6C2FABDF08
:100FE000C85FF80181918F018111F7CF6D2F8C2F90
:100FF0005BDFDF91CF911F910F910895CF92DF9228
:10100000EF92FF920F931F93CF93DF937B01FA012F
:10101000992334F42DE2208391958195910931969D
:101020008F01EF0120E030E00F2EFAE0CF2ED12C1F
:10103000F02D2F5F3F4FB60126D3805D8993862F19
:10104000972F18161906ACF32E153F0564F4DF012F
:10105000A20FB31F9F012E0D3F1D80E38D93A2179A
:10106000B307E1F701C07901EE0DFF1D1082E70122
:1010700021971C161D066CF480E090E0D8012C919D
:1010800032913D938D012083019621978C179D0706
:10109000ACF3DF91CF911F910F91FF90EF90DF9014
:1010A000CF900895CF93DF9300D000D01F92CDB79B
:1010B000DEB7883E23E0920738F4AE014F5F5F4F02
:1010C0009DDFCE0101967ADF0F900F900F900F9069
:1010D0000F90DF91CF91089560E070E0E3DF089515
:1010E0004F925F926F927F92AF92BF92CF92DF92B8
:1010F000EF92FF920F931F93CF93DF936B017C01CD
:101100005A01E90120E030E0A901FFD088233CF436
:101110008DE28883F7FAF094F7F8F0942196C701EE
:10112000B6015FD12B013C01072E000C880B990BF7
:101130008BD19B01AC01C701B60182D06B017C0150
:10114000AE0160E070E0C20159DF8881882339F088
:10115000CE010196EC01019628812111FBCF8E0171
:101160000F5F1F4F8EE288831A141B047CF4C501A5
:1011700061E070E09B01220F331F220F331F620FCB
:10118000731F660F771F0197A9F702C061E070E037
:10119000072E000C880B990B57D1A701960108D296
:1011A00020D1DC01CB01A801B50128DFDF91CF916F
:1011B0001F910F91FF90EF90DF90CF90BF90AF9075
:1011C0007F906F905F904F900895CF92DF92EF9253
:1011D000FF920F931F93CF93DF93CDB7DEB72A977C
:1011E0000FB6F894DEBF0FBECDBF6B017C018A0144
:1011F00020E030E0A90189D088239CF020E030E095
:101200004AE754E4C701B601CFD1882354F49E01C4
:101210002F5F3F4FA801C701B60162DFCE010196E3
:10122000CDDE2A960FB6F894DEBF0FBECDBFDF919C
:10123000CF911F910F91FF90EF90DF90CF90089585
:101240005058BB27AA270ED075C166D130F06BD19C
:1012500020F031F49F3F11F41EF45BC10EF4E095D1
:10126000E7FB51C1E92F77D180F3BA176207730703
:101270008407950718F071F49EF58FC10EF4E09580
:101280000B2EBA2FA02D0B01B90190010C01CA0140
:10129000A0011124FF27591B99F0593F50F4503EEB
:1012A00068F11A16F040A22F232F342F4427585FDD
:1012B000F3CF469537952795A795F0405395C9F7F5
:1012C0007EF41F16BA0B620B730B840BBAF09150AD
:1012D000A1F0FF0FBB1F661F771F881FC2F70EC04C
:1012E000BA0F621F731F841F48F48795779567951F
:1012F000B795F7959E3F08F0B3CF9395880F08F008
:101300009927EE0F979587950895D9D008F481E035
:1013100008950CD00FC107D140F0FED030F021F479
:101320005F3F19F0F0C0511139C1F3C014D198F3E7
:101330009923C9F35523B1F3951B550BBB27AA2756
:1013400062177307840738F09F5F5F4F220F331FC8
:10135000441FAA1FA9F333D00E2E3AF0E0E830D094
:1013600091505040E695001CCAF729D0FE2F27D097
:10137000660F771F881FBB1F261737074807AB0765
:10138000B0E809F0BB0B802DBF01FF2793585F4FDA
:101390002AF09E3F510568F0B6C000C15F3FECF3F4
:1013A000983EDCF3869577956795B795F7959F5F9F
:1013B000C9F7880F911D9695879597F90895E1E0F3
:1013C000660F771F881FBB1F621773078407BA0752
:1013D00020F0621B730B840BBA0BEE1F88F7E095AD
:1013E000089504D06894B111D9C00895BCD088F094
:1013F0009F5790F0B92F9927B751A0F0D1F0660F01
:10140000771F881F991F1AF0BA95C9F712C0B1301B
:1014100081F0C3D0B1E00895C0C0672F782F88272E
:10142000B85F39F0B93FCCF3869577956795B3955A
:10143000D9F73EF490958095709561957F4F8F4FC9
:101440009F4F0895E89409C097FB3EF490958095CE
:10145000709561957F4F8F4F9F4F9923A9F0F92F7A
:1014600096E9BB279395F695879577956795B795F8
:10147000F111F8CFFAF4BB0F11F460FF1BC06F5FDE
:101480007F4F8F4F9F4F16C0882311F096E911C0F0
:10149000772321F09EE8872F762F05C0662371F011
:1014A00096E8862F70E060E02AF09A95660F771F25
:1014B000881FDAF7880F9695879597F90895990F01
:1014C0000008550FAA0BE0E8FEEF16161706E8070E
:1014D000F907C0F012161306E407F50798F0621B2F
:1014E000730B840B950B39F40A2661F0232B242B04
:1014F000252B21F408950A2609F4A140A6958FEF23
:10150000811D811D089597F99F6780E870E060E074
:1015100008959FEF80EC089500240A94161617068C
:1015200018060906089500240A94121613061406D4
:1015300005060895092E0394000C11F4882352F037
:10154000BB0F40F4BF2B11F460FF04C06F5F7F4FEF
:101550008F4F9F4F089557FD9058440F551F59F0D6
:101560005F3F71F04795880F97FB991F61F09F3F90
:1015700079F087950895121613061406551FF2CFB9
:101580004695F1DF08C0161617061806991FF1CF09
:1015900086957105610508940895E894BB27662730
:1015A0007727CB0197F908958ADF08F48FEF089524
:1015B0000AD0C0CFB1DF28F0B6DF18F0952309F0CC
:1015C000A2CFA7CFEBCFC7DFA8F39923D9F3552339
:1015D000C9F3950F50E0551FAA27EE27FF27BB2719
:1015E00000240894679520F4E20FF31FB41F0A1E2D
:1015F000220F331F441FAA1F6695A9F7779530F471
:10160000F30FB41F0A1E121E08F46395330F441F14
:10161000AA1F221F769599F7879520F4B40F0A1E0A
:10162000121E631F440FAA1F221F331F8695A9F79E
:10163000862F712D602D11249F5750408AF0E1F0C4
:1016400088234AF0EE0FFF1FBB1F661F771F881FFE
:1016500091505040A9F79E3F510570F054CF9ECF56
:101660005F3FECF3983EDCF3869577956795B795E9
:10167000F795E7959F5FC1F7FE2B880F911D969513
:10168000879597F9089597FB072E16F4009406D0D6
:1016900077FD08D049D007FC05D03EF490958195A0
:1016A0009F4F0895709561957F4F0895A1E21A2E7E
:1016B000AA1BBB1BFD010DC0AA1FBB1FEE1FFF1FF6
:1016C000A217B307E407F50720F0A21BB30BE40B46
:1016D000F50B661F771F881F991F1A9469F760958D
:1016E0007095809590959B01AC01BD01CF01089547
:1016F000052E97FB16F400940FD057FD05D0D6DFCA
:1017000007FC02D046F408C05095409530952195CD
:101710003F4F4F4F5F4F089590958095709561951D
:101720007F4F8F4F9F4F0895AA1BBB1B51E107C0EE
:10173000AA1FBB1FA617B70710F0A61BB70B881F61
:10174000991F5A95A9F780959095BC01CD010895F0
:10175000E199FECF9FBB8EBBE09A99278DB3089588
:10176000262FE199FECF1CBA9FBB8EBB2DBB0FB6B7
:10177000F894E29AE19A0FBE01960895F894FFCF8B
:101780006F6E20006F666600206B6D2F6820202032
:1017900000643A2000206B6D2020200072706D3AAA
:1017A00020006D733A2000206B6D2F68200061735C
:0E17B0003A200074696D653A006C65643A0079
:00000001FF
